{
  "contractName": "EquinoxMain",
  "abi": [
    {
      "inputs": [
        {
          "internalType": "address[]",
          "name": "initialSigners",
          "type": "address[]"
        },
        {
          "internalType": "address",
          "name": "_equinox",
          "type": "address"
        }
      ],
      "stateMutability": "payable",
      "type": "constructor"
    },
    {
      "inputs": [
        {
          "internalType": "uint256",
          "name": "",
          "type": "uint256"
        },
        {
          "internalType": "address",
          "name": "",
          "type": "address"
        }
      ],
      "name": "addMemberProposalSigned",
      "outputs": [
        {
          "internalType": "bool",
          "name": "",
          "type": "bool"
        }
      ],
      "stateMutability": "view",
      "type": "function"
    },
    {
      "inputs": [],
      "name": "addMemberSignersRequired",
      "outputs": [
        {
          "internalType": "uint256",
          "name": "",
          "type": "uint256"
        }
      ],
      "stateMutability": "view",
      "type": "function"
    },
    {
      "inputs": [
        {
          "internalType": "uint256",
          "name": "",
          "type": "uint256"
        }
      ],
      "name": "addedmembers",
      "outputs": [
        {
          "internalType": "address",
          "name": "member",
          "type": "address"
        },
        {
          "internalType": "bool",
          "name": "finalized",
          "type": "bool"
        },
        {
          "internalType": "bool",
          "name": "disapproved",
          "type": "bool"
        }
      ],
      "stateMutability": "view",
      "type": "function"
    },
    {
      "inputs": [
        {
          "internalType": "uint256",
          "name": "",
          "type": "uint256"
        }
      ],
      "name": "basicProposals",
      "outputs": [
        {
          "internalType": "bool",
          "name": "finalized",
          "type": "bool"
        },
        {
          "internalType": "bool",
          "name": "disapproved",
          "type": "bool"
        }
      ],
      "stateMutability": "view",
      "type": "function"
    },
    {
      "inputs": [],
      "name": "basicSignersRequired",
      "outputs": [
        {
          "internalType": "uint256",
          "name": "",
          "type": "uint256"
        }
      ],
      "stateMutability": "view",
      "type": "function"
    },
    {
      "inputs": [
        {
          "internalType": "address",
          "name": "",
          "type": "address"
        }
      ],
      "name": "canSign",
      "outputs": [
        {
          "internalType": "bool",
          "name": "",
          "type": "bool"
        }
      ],
      "stateMutability": "view",
      "type": "function"
    },
    {
      "inputs": [],
      "name": "equinox",
      "outputs": [
        {
          "internalType": "address",
          "name": "",
          "type": "address"
        }
      ],
      "stateMutability": "view",
      "type": "function"
    },
    {
      "inputs": [],
      "name": "gToken",
      "outputs": [
        {
          "internalType": "contract IERC20",
          "name": "",
          "type": "address"
        }
      ],
      "stateMutability": "view",
      "type": "function"
    },
    {
      "inputs": [
        {
          "internalType": "uint256",
          "name": "",
          "type": "uint256"
        }
      ],
      "name": "members",
      "outputs": [
        {
          "internalType": "address",
          "name": "member",
          "type": "address"
        },
        {
          "internalType": "bool",
          "name": "finalized",
          "type": "bool"
        },
        {
          "internalType": "bool",
          "name": "disapproved",
          "type": "bool"
        }
      ],
      "stateMutability": "view",
      "type": "function"
    },
    {
      "inputs": [],
      "name": "owner",
      "outputs": [
        {
          "internalType": "address",
          "name": "",
          "type": "address"
        }
      ],
      "stateMutability": "view",
      "type": "function"
    },
    {
      "inputs": [],
      "name": "productOwner",
      "outputs": [
        {
          "internalType": "address",
          "name": "",
          "type": "address"
        }
      ],
      "stateMutability": "view",
      "type": "function"
    },
    {
      "inputs": [
        {
          "internalType": "uint256",
          "name": "",
          "type": "uint256"
        }
      ],
      "name": "proposals",
      "outputs": [
        {
          "internalType": "address",
          "name": "to",
          "type": "address"
        },
        {
          "internalType": "uint256",
          "name": "amount",
          "type": "uint256"
        },
        {
          "internalType": "uint256",
          "name": "tokenAmount",
          "type": "uint256"
        },
        {
          "internalType": "address",
          "name": "tokenAddress",
          "type": "address"
        },
        {
          "internalType": "bool",
          "name": "finalized",
          "type": "bool"
        },
        {
          "internalType": "bool",
          "name": "disapproved",
          "type": "bool"
        }
      ],
      "stateMutability": "view",
      "type": "function"
    },
    {
      "inputs": [
        {
          "internalType": "uint256",
          "name": "",
          "type": "uint256"
        },
        {
          "internalType": "address",
          "name": "",
          "type": "address"
        }
      ],
      "name": "removeMemberProposalDisapproved",
      "outputs": [
        {
          "internalType": "bool",
          "name": "",
          "type": "bool"
        }
      ],
      "stateMutability": "view",
      "type": "function"
    },
    {
      "inputs": [
        {
          "internalType": "uint256",
          "name": "",
          "type": "uint256"
        },
        {
          "internalType": "address",
          "name": "",
          "type": "address"
        }
      ],
      "name": "removeMemberProposalSigned",
      "outputs": [
        {
          "internalType": "bool",
          "name": "",
          "type": "bool"
        }
      ],
      "stateMutability": "view",
      "type": "function"
    },
    {
      "inputs": [],
      "name": "removeMemberSignersRequired",
      "outputs": [
        {
          "internalType": "uint256",
          "name": "",
          "type": "uint256"
        }
      ],
      "stateMutability": "view",
      "type": "function"
    },
    {
      "inputs": [
        {
          "internalType": "uint256",
          "name": "",
          "type": "uint256"
        }
      ],
      "name": "signers",
      "outputs": [
        {
          "internalType": "address",
          "name": "",
          "type": "address"
        }
      ],
      "stateMutability": "view",
      "type": "function"
    },
    {
      "inputs": [],
      "name": "signersRequired",
      "outputs": [
        {
          "internalType": "uint256",
          "name": "",
          "type": "uint256"
        }
      ],
      "stateMutability": "view",
      "type": "function"
    },
    {
      "inputs": [],
      "name": "taxAmountInWei",
      "outputs": [
        {
          "internalType": "uint256",
          "name": "",
          "type": "uint256"
        }
      ],
      "stateMutability": "view",
      "type": "function"
    },
    {
      "inputs": [
        {
          "internalType": "uint256",
          "name": "",
          "type": "uint256"
        }
      ],
      "name": "transferProposals",
      "outputs": [
        {
          "internalType": "address",
          "name": "from",
          "type": "address"
        },
        {
          "internalType": "address",
          "name": "to",
          "type": "address"
        },
        {
          "internalType": "uint256",
          "name": "tokenAmount",
          "type": "uint256"
        },
        {
          "internalType": "address",
          "name": "tokenAddress",
          "type": "address"
        },
        {
          "internalType": "bool",
          "name": "finalized",
          "type": "bool"
        },
        {
          "internalType": "bool",
          "name": "disapproved",
          "type": "bool"
        }
      ],
      "stateMutability": "view",
      "type": "function"
    },
    {
      "inputs": [],
      "name": "transferSignersRequired",
      "outputs": [
        {
          "internalType": "uint256",
          "name": "",
          "type": "uint256"
        }
      ],
      "stateMutability": "view",
      "type": "function"
    },
    {
      "stateMutability": "payable",
      "type": "receive"
    },
    {
      "inputs": [],
      "name": "balance",
      "outputs": [
        {
          "internalType": "uint256",
          "name": "",
          "type": "uint256"
        }
      ],
      "stateMutability": "view",
      "type": "function"
    },
    {
      "inputs": [],
      "name": "listSigners",
      "outputs": [
        {
          "internalType": "address[]",
          "name": "",
          "type": "address[]"
        }
      ],
      "stateMutability": "view",
      "type": "function"
    },
    {
      "inputs": [
        {
          "internalType": "uint256",
          "name": "amount",
          "type": "uint256"
        },
        {
          "internalType": "address",
          "name": "account",
          "type": "address"
        }
      ],
      "name": "transferGtoken",
      "outputs": [],
      "stateMutability": "nonpayable",
      "type": "function"
    },
    {
      "inputs": [
        {
          "internalType": "uint256",
          "name": "amount",
          "type": "uint256"
        },
        {
          "internalType": "uint256",
          "name": "tokenAmount",
          "type": "uint256"
        },
        {
          "internalType": "address",
          "name": "tokenAddress",
          "type": "address"
        },
        {
          "internalType": "address",
          "name": "to",
          "type": "address"
        }
      ],
      "name": "submitProposal",
      "outputs": [],
      "stateMutability": "payable",
      "type": "function"
    },
    {
      "inputs": [
        {
          "internalType": "uint256",
          "name": "proposalIndex",
          "type": "uint256"
        }
      ],
      "name": "sign",
      "outputs": [],
      "stateMutability": "payable",
      "type": "function"
    },
    {
      "inputs": [
        {
          "internalType": "uint256",
          "name": "index",
          "type": "uint256"
        }
      ],
      "name": "signerRequirementMet",
      "outputs": [
        {
          "internalType": "bool",
          "name": "",
          "type": "bool"
        }
      ],
      "stateMutability": "view",
      "type": "function"
    },
    {
      "inputs": [
        {
          "internalType": "uint256",
          "name": "index",
          "type": "uint256"
        },
        {
          "internalType": "address",
          "name": "icoTokenAddress",
          "type": "address"
        }
      ],
      "name": "finalizeProposal",
      "outputs": [],
      "stateMutability": "nonpayable",
      "type": "function"
    },
    {
      "inputs": [],
      "name": "listProposals",
      "outputs": [
        {
          "components": [
            {
              "internalType": "address",
              "name": "to",
              "type": "address"
            },
            {
              "internalType": "uint256",
              "name": "amount",
              "type": "uint256"
            },
            {
              "internalType": "uint256",
              "name": "tokenAmount",
              "type": "uint256"
            },
            {
              "internalType": "address",
              "name": "tokenAddress",
              "type": "address"
            },
            {
              "internalType": "bool",
              "name": "finalized",
              "type": "bool"
            },
            {
              "internalType": "bool",
              "name": "disapproved",
              "type": "bool"
            }
          ],
          "internalType": "struct EquinoxMain.Proposal[]",
          "name": "",
          "type": "tuple[]"
        }
      ],
      "stateMutability": "view",
      "type": "function"
    },
    {
      "inputs": [
        {
          "internalType": "uint256",
          "name": "index",
          "type": "uint256"
        },
        {
          "internalType": "address",
          "name": "signer",
          "type": "address"
        }
      ],
      "name": "isSigned",
      "outputs": [
        {
          "internalType": "bool",
          "name": "",
          "type": "bool"
        }
      ],
      "stateMutability": "view",
      "type": "function"
    },
    {
      "inputs": [
        {
          "internalType": "uint256",
          "name": "index",
          "type": "uint256"
        }
      ],
      "name": "disapproveProposal",
      "outputs": [],
      "stateMutability": "payable",
      "type": "function"
    },
    {
      "inputs": [
        {
          "internalType": "uint256",
          "name": "index",
          "type": "uint256"
        },
        {
          "internalType": "address",
          "name": "signer",
          "type": "address"
        }
      ],
      "name": "isProposalDisapproved",
      "outputs": [
        {
          "internalType": "bool",
          "name": "",
          "type": "bool"
        }
      ],
      "stateMutability": "view",
      "type": "function"
    },
    {
      "inputs": [
        {
          "internalType": "uint256",
          "name": "index",
          "type": "uint256"
        }
      ],
      "name": "isFinalICOProposal",
      "outputs": [
        {
          "internalType": "bool",
          "name": "",
          "type": "bool"
        }
      ],
      "stateMutability": "view",
      "type": "function"
    },
    {
      "inputs": [
        {
          "internalType": "address",
          "name": "_address",
          "type": "address"
        }
      ],
      "name": "removeMemberProposal",
      "outputs": [],
      "stateMutability": "payable",
      "type": "function"
    },
    {
      "inputs": [
        {
          "internalType": "uint256",
          "name": "proposalIndex",
          "type": "uint256"
        }
      ],
      "name": "signRemoveMemberProposal",
      "outputs": [],
      "stateMutability": "payable",
      "type": "function"
    },
    {
      "inputs": [
        {
          "internalType": "uint256",
          "name": "index",
          "type": "uint256"
        }
      ],
      "name": "removeProposalRequirementMet",
      "outputs": [
        {
          "internalType": "bool",
          "name": "",
          "type": "bool"
        }
      ],
      "stateMutability": "view",
      "type": "function"
    },
    {
      "inputs": [
        {
          "internalType": "uint256",
          "name": "index",
          "type": "uint256"
        }
      ],
      "name": "removeWalletMember",
      "outputs": [],
      "stateMutability": "nonpayable",
      "type": "function"
    },
    {
      "inputs": [],
      "name": "listRemoveMembers",
      "outputs": [
        {
          "components": [
            {
              "internalType": "address",
              "name": "member",
              "type": "address"
            },
            {
              "internalType": "bool",
              "name": "finalized",
              "type": "bool"
            },
            {
              "internalType": "bool",
              "name": "disapproved",
              "type": "bool"
            }
          ],
          "internalType": "struct EquinoxMain.removeMember[]",
          "name": "",
          "type": "tuple[]"
        }
      ],
      "stateMutability": "view",
      "type": "function"
    },
    {
      "inputs": [
        {
          "internalType": "uint256",
          "name": "index",
          "type": "uint256"
        },
        {
          "internalType": "address",
          "name": "account",
          "type": "address"
        }
      ],
      "name": "hasRemoveMemberProposolSigned",
      "outputs": [
        {
          "internalType": "bool",
          "name": "",
          "type": "bool"
        }
      ],
      "stateMutability": "view",
      "type": "function"
    },
    {
      "inputs": [
        {
          "internalType": "uint256",
          "name": "index",
          "type": "uint256"
        }
      ],
      "name": "disapproveRemoveMemberProposal",
      "outputs": [],
      "stateMutability": "payable",
      "type": "function"
    },
    {
      "inputs": [
        {
          "internalType": "uint256",
          "name": "index",
          "type": "uint256"
        },
        {
          "internalType": "address",
          "name": "signer",
          "type": "address"
        }
      ],
      "name": "isRemoveMemberProposalDisapproved",
      "outputs": [
        {
          "internalType": "bool",
          "name": "",
          "type": "bool"
        }
      ],
      "stateMutability": "view",
      "type": "function"
    },
    {
      "inputs": [
        {
          "internalType": "uint256",
          "name": "index",
          "type": "uint256"
        }
      ],
      "name": "isFinalRemoveMemberProposal",
      "outputs": [
        {
          "internalType": "bool",
          "name": "",
          "type": "bool"
        }
      ],
      "stateMutability": "view",
      "type": "function"
    },
    {
      "inputs": [
        {
          "internalType": "address",
          "name": "_address",
          "type": "address"
        }
      ],
      "name": "addMemberProposal",
      "outputs": [],
      "stateMutability": "payable",
      "type": "function"
    },
    {
      "inputs": [
        {
          "internalType": "uint256",
          "name": "proposalIndex",
          "type": "uint256"
        }
      ],
      "name": "signAddMemberProposal",
      "outputs": [],
      "stateMutability": "nonpayable",
      "type": "function"
    },
    {
      "inputs": [
        {
          "internalType": "uint256",
          "name": "index",
          "type": "uint256"
        }
      ],
      "name": "addMemberProposalRequirementMet",
      "outputs": [
        {
          "internalType": "bool",
          "name": "",
          "type": "bool"
        }
      ],
      "stateMutability": "view",
      "type": "function"
    },
    {
      "inputs": [
        {
          "internalType": "uint256",
          "name": "index",
          "type": "uint256"
        }
      ],
      "name": "finalizeAddMemberProposal",
      "outputs": [],
      "stateMutability": "nonpayable",
      "type": "function"
    },
    {
      "inputs": [],
      "name": "listAddedMembers",
      "outputs": [
        {
          "components": [
            {
              "internalType": "address",
              "name": "member",
              "type": "address"
            },
            {
              "internalType": "bool",
              "name": "finalized",
              "type": "bool"
            },
            {
              "internalType": "bool",
              "name": "disapproved",
              "type": "bool"
            }
          ],
          "internalType": "struct EquinoxMain.addMember[]",
          "name": "",
          "type": "tuple[]"
        }
      ],
      "stateMutability": "view",
      "type": "function"
    },
    {
      "inputs": [
        {
          "internalType": "uint256",
          "name": "index",
          "type": "uint256"
        },
        {
          "internalType": "address",
          "name": "account",
          "type": "address"
        }
      ],
      "name": "hasAddMemberProposolSigned",
      "outputs": [
        {
          "internalType": "bool",
          "name": "",
          "type": "bool"
        }
      ],
      "stateMutability": "view",
      "type": "function"
    },
    {
      "inputs": [
        {
          "internalType": "uint256",
          "name": "index",
          "type": "uint256"
        }
      ],
      "name": "disapproveAddMemberProposal",
      "outputs": [],
      "stateMutability": "nonpayable",
      "type": "function"
    },
    {
      "inputs": [
        {
          "internalType": "uint256",
          "name": "index",
          "type": "uint256"
        },
        {
          "internalType": "address",
          "name": "signer",
          "type": "address"
        }
      ],
      "name": "isAddMemberProposalDisapproved",
      "outputs": [
        {
          "internalType": "bool",
          "name": "",
          "type": "bool"
        }
      ],
      "stateMutability": "view",
      "type": "function"
    },
    {
      "inputs": [
        {
          "internalType": "uint256",
          "name": "index",
          "type": "uint256"
        }
      ],
      "name": "isFinalAddmemberProposal",
      "outputs": [
        {
          "internalType": "bool",
          "name": "",
          "type": "bool"
        }
      ],
      "stateMutability": "view",
      "type": "function"
    },
    {
      "inputs": [
        {
          "internalType": "uint256",
          "name": "tokenAmount",
          "type": "uint256"
        },
        {
          "internalType": "address",
          "name": "tokenAddress",
          "type": "address"
        },
        {
          "internalType": "address",
          "name": "to",
          "type": "address"
        }
      ],
      "name": "submitTransferProposal",
      "outputs": [],
      "stateMutability": "payable",
      "type": "function"
    },
    {
      "inputs": [
        {
          "internalType": "uint256",
          "name": "proposalIndex",
          "type": "uint256"
        }
      ],
      "name": "signTransferProposal",
      "outputs": [],
      "stateMutability": "nonpayable",
      "type": "function"
    },
    {
      "inputs": [
        {
          "internalType": "uint256",
          "name": "index",
          "type": "uint256"
        }
      ],
      "name": "transferProposalSignerRequirementMet",
      "outputs": [
        {
          "internalType": "bool",
          "name": "",
          "type": "bool"
        }
      ],
      "stateMutability": "view",
      "type": "function"
    },
    {
      "inputs": [
        {
          "internalType": "uint256",
          "name": "index",
          "type": "uint256"
        }
      ],
      "name": "finalizeTransferProposal",
      "outputs": [],
      "stateMutability": "nonpayable",
      "type": "function"
    },
    {
      "inputs": [],
      "name": "listTransferProposals",
      "outputs": [
        {
          "components": [
            {
              "internalType": "address",
              "name": "from",
              "type": "address"
            },
            {
              "internalType": "address",
              "name": "to",
              "type": "address"
            },
            {
              "internalType": "uint256",
              "name": "tokenAmount",
              "type": "uint256"
            },
            {
              "internalType": "address",
              "name": "tokenAddress",
              "type": "address"
            },
            {
              "internalType": "bool",
              "name": "finalized",
              "type": "bool"
            },
            {
              "internalType": "bool",
              "name": "disapproved",
              "type": "bool"
            }
          ],
          "internalType": "struct EquinoxMain.TransferProposal[]",
          "name": "",
          "type": "tuple[]"
        }
      ],
      "stateMutability": "view",
      "type": "function"
    },
    {
      "inputs": [
        {
          "internalType": "uint256",
          "name": "index",
          "type": "uint256"
        },
        {
          "internalType": "address",
          "name": "signer",
          "type": "address"
        }
      ],
      "name": "isTransferProposalSigned",
      "outputs": [
        {
          "internalType": "bool",
          "name": "",
          "type": "bool"
        }
      ],
      "stateMutability": "view",
      "type": "function"
    },
    {
      "inputs": [
        {
          "internalType": "uint256",
          "name": "index",
          "type": "uint256"
        }
      ],
      "name": "disapproveTransferProposal",
      "outputs": [],
      "stateMutability": "nonpayable",
      "type": "function"
    },
    {
      "inputs": [
        {
          "internalType": "uint256",
          "name": "index",
          "type": "uint256"
        },
        {
          "internalType": "address",
          "name": "signer",
          "type": "address"
        }
      ],
      "name": "isTransferProposalDisapproved",
      "outputs": [
        {
          "internalType": "bool",
          "name": "",
          "type": "bool"
        }
      ],
      "stateMutability": "view",
      "type": "function"
    },
    {
      "inputs": [
        {
          "internalType": "uint256",
          "name": "index",
          "type": "uint256"
        }
      ],
      "name": "isFinalTransferProposal",
      "outputs": [
        {
          "internalType": "bool",
          "name": "",
          "type": "bool"
        }
      ],
      "stateMutability": "view",
      "type": "function"
    },
    {
      "inputs": [],
      "name": "submitBasicProposal",
      "outputs": [],
      "stateMutability": "payable",
      "type": "function"
    },
    {
      "inputs": [
        {
          "internalType": "uint256",
          "name": "proposalIndex",
          "type": "uint256"
        }
      ],
      "name": "signBasicProposal",
      "outputs": [],
      "stateMutability": "nonpayable",
      "type": "function"
    },
    {
      "inputs": [
        {
          "internalType": "uint256",
          "name": "index",
          "type": "uint256"
        }
      ],
      "name": "basicProposalSignerRequirementMet",
      "outputs": [
        {
          "internalType": "bool",
          "name": "",
          "type": "bool"
        }
      ],
      "stateMutability": "view",
      "type": "function"
    },
    {
      "inputs": [
        {
          "internalType": "uint256",
          "name": "index",
          "type": "uint256"
        }
      ],
      "name": "finalizeBasicProposal",
      "outputs": [],
      "stateMutability": "nonpayable",
      "type": "function"
    },
    {
      "inputs": [],
      "name": "listBasicProposals",
      "outputs": [
        {
          "components": [
            {
              "internalType": "bool",
              "name": "finalized",
              "type": "bool"
            },
            {
              "internalType": "bool",
              "name": "disapproved",
              "type": "bool"
            }
          ],
          "internalType": "struct EquinoxMain.BasicProposal[]",
          "name": "",
          "type": "tuple[]"
        }
      ],
      "stateMutability": "view",
      "type": "function"
    },
    {
      "inputs": [
        {
          "internalType": "uint256",
          "name": "index",
          "type": "uint256"
        },
        {
          "internalType": "address",
          "name": "signer",
          "type": "address"
        }
      ],
      "name": "isBasicProposalSigned",
      "outputs": [
        {
          "internalType": "bool",
          "name": "",
          "type": "bool"
        }
      ],
      "stateMutability": "view",
      "type": "function"
    },
    {
      "inputs": [
        {
          "internalType": "uint256",
          "name": "index",
          "type": "uint256"
        }
      ],
      "name": "disapproveBasicProposal",
      "outputs": [],
      "stateMutability": "nonpayable",
      "type": "function"
    },
    {
      "inputs": [
        {
          "internalType": "uint256",
          "name": "index",
          "type": "uint256"
        },
        {
          "internalType": "address",
          "name": "signer",
          "type": "address"
        }
      ],
      "name": "isBasicProposalDisapproved",
      "outputs": [
        {
          "internalType": "bool",
          "name": "",
          "type": "bool"
        }
      ],
      "stateMutability": "view",
      "type": "function"
    },
    {
      "inputs": [
        {
          "internalType": "uint256",
          "name": "index",
          "type": "uint256"
        }
      ],
      "name": "isFinalBasicProposal",
      "outputs": [
        {
          "internalType": "bool",
          "name": "",
          "type": "bool"
        }
      ],
      "stateMutability": "view",
      "type": "function"
    }
  ],
  "bytecode": "0x6080604052739c333a1a1dcc8c0d517eb5bec014c0edd5d76c2f6000806101000a81548173ffffffffffffffffffffffffffffffffffffffff021916908373ffffffffffffffffffffffffffffffffffffffff160217905550660221b262dd800060055560405162005dcd38038062005dcd8339818101604052810190620000889190620004c0565b8151600a819055506064604b8351620000a291906200055f565b620000ae9190620005ef565b600e81905550815160128190555081516016819055506064604b8351620000d691906200055f565b620000e29190620005ef565b601a8190555081600290805190602001906200010092919062000224565b5080600360006101000a81548173ffffffffffffffffffffffffffffffffffffffff021916908373ffffffffffffffffffffffffffffffffffffffff16021790555033600160006101000a81548173ffffffffffffffffffffffffffffffffffffffff021916908373ffffffffffffffffffffffffffffffffffffffff16021790555060005b82518110156200021b57600160066000858481518110620001ac57620001ab62000627565b5b602002602001015173ffffffffffffffffffffffffffffffffffffffff1673ffffffffffffffffffffffffffffffffffffffff16815260200190815260200160002060006101000a81548160ff0219169083151502179055508080620002129062000656565b91505062000186565b505050620006a3565b828054828255906000526020600020908101928215620002a0579160200282015b828111156200029f5782518260006101000a81548173ffffffffffffffffffffffffffffffffffffffff021916908373ffffffffffffffffffffffffffffffffffffffff1602179055509160200191906001019062000245565b5b509050620002af9190620002b3565b5090565b5b80821115620002ce576000816000905550600101620002b4565b5090565b6000604051905090565b600080fd5b600080fd5b600080fd5b6000601f19601f8301169050919050565b7f4e487b7100000000000000000000000000000000000000000000000000000000600052604160045260246000fd5b6200033682620002eb565b810181811067ffffffffffffffff82111715620003585762000357620002fc565b5b80604052505050565b60006200036d620002d2565b90506200037b82826200032b565b919050565b600067ffffffffffffffff8211156200039e576200039d620002fc565b5b602082029050602081019050919050565b600080fd5b600073ffffffffffffffffffffffffffffffffffffffff82169050919050565b6000620003e182620003b4565b9050919050565b620003f381620003d4565b8114620003ff57600080fd5b50565b6000815190506200041381620003e8565b92915050565b6000620004306200042a8462000380565b62000361565b90508083825260208201905060208402830185811115620004565762000455620003af565b5b835b818110156200048357806200046e888262000402565b84526020840193505060208101905062000458565b5050509392505050565b600082601f830112620004a557620004a4620002e6565b5b8151620004b784826020860162000419565b91505092915050565b60008060408385031215620004da57620004d9620002dc565b5b600083015167ffffffffffffffff811115620004fb57620004fa620002e1565b5b62000509858286016200048d565b92505060206200051c8582860162000402565b9150509250929050565b6000819050919050565b7f4e487b7100000000000000000000000000000000000000000000000000000000600052601160045260246000fd5b60006200056c8262000526565b9150620005798362000526565b9250817fffffffffffffffffffffffffffffffffffffffffffffffffffffffffffffffff0483118215151615620005b557620005b462000530565b5b828202905092915050565b7f4e487b7100000000000000000000000000000000000000000000000000000000600052601260045260246000fd5b6000620005fc8262000526565b9150620006098362000526565b9250826200061c576200061b620005c0565b5b828204905092915050565b7f4e487b7100000000000000000000000000000000000000000000000000000000600052603260045260246000fd5b6000620006638262000526565b91507fffffffffffffffffffffffffffffffffffffffffffffffffffffffffffffffff820362000698576200069762000530565b5b600182019050919050565b61571a80620006b36000396000f3fe6080604052600436106103f35760003560e01c80637502fe9311610208578063b84112e411610118578063cf1d8f02116100ab578063db072be51161007a578063db072be514610fc4578063e0d1655e14611001578063e55b333814611040578063f2ee95361461107d578063fa075060146110a8576103fa565b8063cf1d8f0214610f29578063d198036714610f52578063d34b67ff14610f7d578063d44eb6ec14610fba576103fa565b8063c82e7ec1116100e7578063c82e7ec114610e56578063c8541fe014610e93578063cbc8cc9b14610eaf578063cbffe36314610eec576103fa565b8063b84112e414610d9e578063b97defda14610dc7578063c05787b814610df0578063c61c3adb14610e19576103fa565b80638da5cb5b1161019b5780639b1fb8f41161016a5780639b1fb8f414610ca5578063a065d7be14610ce2578063a3e8a06d14610d0d578063a7bad92514610d36578063b69ef8a814610d73576103fa565b80638da5cb5b14610c0a5780639209bb8814610c355780639429e3d014610c6057806399c2a25014610c89576103fa565b80637ef30520116101d75780637ef3052014610b3c5780638497a0df14610b795780638ae0576914610bb65780638d22763614610be1576103fa565b80637502fe9314610a6e57806376ffb9bd14610aab5780637e541d9714610ad65780637ee4125a14610b13576103fa565b806333caad3d116103035780635a9d2bda1161029657806361afd74c1161026557806361afd74c1461099857806362daf288146109c15780636e34d2fb146109ea5780636e77a60d14610a0657806374d5469814610a31576103fa565b80635a9d2bda146108d55780635b767cda146109125780635daf08ca1461092e5780635f3ce2371461096d576103fa565b806341dc42dd116102d257806341dc42dd146108355780634629a3da1461086057806359766ad31461087c57806359d2919e146108b9576103fa565b806333caad3d1461075557806334bfeff4146107925780633737d2eb146107bb5780633e6d21fa146107f8576103fa565b806311e5748f1161038657806326c7eb1c1161035557806326c7eb1c146106895780632a0a1811146106b45780632d2a7943146106f25780632dd4c99d1461071d5780632fb1b25f14610739576103fa565b806311e5748f146105bb57806311f646a3146105e4578063134651041461060f5780632079fb9a1461064c576103fa565b8063055ceb47116103c2578063055ceb47146104eb5780630b24c38d146105285780630f864b01146105655780630f9f8d3c14610590576103fa565b8063012fe7fd146103ff578063013cf08b14610441578063020aef941461048357806302647210146104c0576103fa565b366103fa57005b600080fd5b34801561040b57600080fd5b5061042660048036038101906104219190614925565b6110e5565b604051610438969594939291906149bd565b60405180910390f35b34801561044d57600080fd5b5061046860048036038101906104639190614925565b6111ab565b60405161047a96959493929190614a1e565b60405180910390f35b34801561048f57600080fd5b506104aa60048036038101906104a59190614925565b611251565b6040516104b79190614a7f565b60405180910390f35b3480156104cc57600080fd5b506104d561135d565b6040516104e29190614ba9565b60405180910390f35b3480156104f757600080fd5b50610512600480360381019061050d9190614925565b611444565b60405161051f9190614a7f565b60405180910390f35b34801561053457600080fd5b5061054f600480360381019061054a9190614bf7565b611481565b60405161055c9190614a7f565b60405180910390f35b34801561057157600080fd5b5061057a6114e9565b6040516105879190614c37565b60405180910390f35b34801561059c57600080fd5b506105a56114ef565b6040516105b29190614d30565b60405180910390f35b3480156105c757600080fd5b506105e260048036038101906105dd9190614925565b611580565b005b3480156105f057600080fd5b506105f961166f565b6040516106069190614e01565b60405180910390f35b34801561061b57600080fd5b5061063660048036038101906106319190614925565b6116fd565b6040516106439190614a7f565b60405180910390f35b34801561065857600080fd5b50610673600480360381019061066e9190614925565b611809565b6040516106809190614e23565b60405180910390f35b34801561069557600080fd5b5061069e611848565b6040516106ab9190614f77565b60405180910390f35b3480156106c057600080fd5b506106db60048036038101906106d69190614925565b61199d565b6040516106e9929190614f99565b60405180910390f35b3480156106fe57600080fd5b506107076119e7565b6040516107149190614c37565b60405180910390f35b61073760048036038101906107329190614fc2565b6119ed565b005b610753600480360381019061074e9190614925565b611be3565b005b34801561076157600080fd5b5061077c60048036038101906107779190614bf7565b611ccf565b6040516107899190614a7f565b60405180910390f35b34801561079e57600080fd5b506107b960048036038101906107b49190614925565b611d37565b005b3480156107c757600080fd5b506107e260048036038101906107dd9190614bf7565b611e23565b6040516107ef9190614a7f565b60405180910390f35b34801561080457600080fd5b5061081f600480360381019061081a9190614bf7565b611e8b565b60405161082c9190614a7f565b60405180910390f35b34801561084157600080fd5b5061084a611ef3565b6040516108579190614c37565b60405180910390f35b61087a60048036038101906108759190614fef565b611ef9565b005b34801561088857600080fd5b506108a3600480360381019061089e9190614925565b612179565b6040516108b09190614a7f565b60405180910390f35b6108d360048036038101906108ce9190615056565b612285565b005b3480156108e157600080fd5b506108fc60048036038101906108f79190614bf7565b612557565b6040516109099190614a7f565b60405180910390f35b61092c60048036038101906109279190614fc2565b6125bf565b005b34801561093a57600080fd5b5061095560048036038101906109509190614925565b612814565b604051610964939291906150a9565b60405180910390f35b34801561097957600080fd5b50610982612884565b60405161098f919061520a565b60405180910390f35b3480156109a457600080fd5b506109bf60048036038101906109ba9190614bf7565b612a25565b005b3480156109cd57600080fd5b506109e860048036038101906109e39190614925565b612e21565b005b610a0460048036038101906109ff9190614925565b612ec7565b005b348015610a1257600080fd5b50610a1b612f33565b604051610a289190614c37565b60405180910390f35b348015610a3d57600080fd5b50610a586004803603810190610a539190614bf7565b612f39565b604051610a659190614a7f565b60405180910390f35b348015610a7a57600080fd5b50610a956004803603810190610a909190614bf7565b612fa1565b604051610aa29190614a7f565b60405180910390f35b348015610ab757600080fd5b50610ac0613009565b604051610acd919061528b565b60405180910390f35b348015610ae257600080fd5b50610afd6004803603810190610af89190614bf7565b61302f565b604051610b0a9190614a7f565b60405180910390f35b348015610b1f57600080fd5b50610b3a6004803603810190610b359190614925565b613097565b005b348015610b4857600080fd5b50610b636004803603810190610b5e9190614fc2565b613388565b604051610b709190614a7f565b60405180910390f35b348015610b8557600080fd5b50610ba06004803603810190610b9b9190614bf7565b6133a8565b604051610bad9190614a7f565b60405180910390f35b348015610bc257600080fd5b50610bcb6133d7565b604051610bd89190614c37565b60405180910390f35b348015610bed57600080fd5b50610c086004803603810190610c039190614925565b6133dd565b005b348015610c1657600080fd5b50610c1f613487565b604051610c2c9190614e23565b60405180910390f35b348015610c4157600080fd5b50610c4a6134ad565b604051610c579190614e23565b60405180910390f35b348015610c6c57600080fd5b50610c876004803603810190610c829190614925565b6134d1565b005b610ca36004803603810190610c9e9190614925565b61353d565b005b348015610cb157600080fd5b50610ccc6004803603810190610cc79190614925565b613629565b604051610cd99190614a7f565b60405180910390f35b348015610cee57600080fd5b50610cf7613735565b604051610d049190614e23565b60405180910390f35b348015610d1957600080fd5b50610d346004803603810190610d2f9190614925565b61375b565b005b348015610d4257600080fd5b50610d5d6004803603810190610d589190614bf7565b61399f565b604051610d6a9190614a7f565b60405180910390f35b348015610d7f57600080fd5b50610d886139ce565b604051610d959190614c37565b60405180910390f35b348015610daa57600080fd5b50610dc56004803603810190610dc09190614925565b6139d6565b005b348015610dd357600080fd5b50610dee6004803603810190610de99190614bf7565b613ac2565b005b348015610dfc57600080fd5b50610e176004803603810190610e129190614925565b613bc6565b005b348015610e2557600080fd5b50610e406004803603810190610e3b9190614bf7565b613cb2565b604051610e4d9190614a7f565b60405180910390f35b348015610e6257600080fd5b50610e7d6004803603810190610e789190614925565b613d1a565b604051610e8a9190614a7f565b60405180910390f35b610ead6004803603810190610ea89190614925565b613e08565b005b348015610ebb57600080fd5b50610ed66004803603810190610ed19190614bf7565b613eb2565b604051610ee39190614a7f565b60405180910390f35b348015610ef857600080fd5b50610f136004803603810190610f0e9190614bf7565b613ee1565b604051610f209190614a7f565b60405180910390f35b348015610f3557600080fd5b50610f506004803603810190610f4b9190614925565b613f49565b005b348015610f5e57600080fd5b50610f676142a1565b604051610f749190614c37565b60405180910390f35b348015610f8957600080fd5b50610fa46004803603810190610f9f9190614925565b6142a7565b604051610fb19190614a7f565b60405180910390f35b610fc2614395565b005b348015610fd057600080fd5b50610feb6004803603810190610fe69190614925565b614527565b604051610ff89190614a7f565b60405180910390f35b34801561100d57600080fd5b5061102860048036038101906110239190614925565b614633565b604051611037939291906150a9565b60405180910390f35b34801561104c57600080fd5b5061106760048036038101906110629190614925565b6146a3565b6040516110749190614a7f565b60405180910390f35b34801561108957600080fd5b506110926146e0565b60405161109f9190615397565b60405180910390f35b3480156110b457600080fd5b506110cf60048036038101906110ca9190614925565b6147c7565b6040516110dc9190614a7f565b60405180910390f35b601581815481106110f557600080fd5b90600052602060002090600402016000915090508060000160009054906101000a900473ffffffffffffffffffffffffffffffffffffffff16908060010160009054906101000a900473ffffffffffffffffffffffffffffffffffffffff16908060020154908060030160009054906101000a900473ffffffffffffffffffffffffffffffffffffffff16908060030160149054906101000a900460ff16908060030160159054906101000a900460ff16905086565b600981815481106111bb57600080fd5b90600052602060002090600402016000915090508060000160009054906101000a900473ffffffffffffffffffffffffffffffffffffffff16908060010154908060020154908060030160009054906101000a900473ffffffffffffffffffffffffffffffffffffffff16908060030160149054906101000a900460ff16908060030160159054906101000a900460ff16905086565b600081600081101561126257600080fd5b601580549050811061127357600080fd5b6000805b60028054905081101561134d5760011515601460008781526020019081526020016000206000600284815481106112b1576112b06153b9565b5b9060005260206000200160009054906101000a900473ffffffffffffffffffffffffffffffffffffffff1673ffffffffffffffffffffffffffffffffffffffff1673ffffffffffffffffffffffffffffffffffffffff16815260200190815260200160002060009054906101000a900460ff1615150361133a57818061133690615417565b9250505b808061134590615417565b915050611277565b5060165481101592505050919050565b6060600d805480602002602001604051908101604052809291908181526020016000905b8282101561143b578382906000526020600020016040518060600160405290816000820160009054906101000a900473ffffffffffffffffffffffffffffffffffffffff1673ffffffffffffffffffffffffffffffffffffffff1673ffffffffffffffffffffffffffffffffffffffff1681526020016000820160149054906101000a900460ff161515151581526020016000820160159054906101000a900460ff16151515158152505081526020019060010190611381565b50505050905090565b60006009828154811061145a576114596153b9565b5b906000526020600020906004020160030160159054906101000a900460ff16159050919050565b6000600b600084815260200190815260200160002060008373ffffffffffffffffffffffffffffffffffffffff1673ffffffffffffffffffffffffffffffffffffffff16815260200190815260200160002060009054906101000a900460ff16905092915050565b60055481565b60606019805480602002602001604051908101604052809291908181526020016000905b82821015611577578382906000526020600020016040518060400160405290816000820160009054906101000a900460ff161515151581526020016000820160019054906101000a900460ff16151515158152505081526020019060010190611513565b50505050905090565b8061158a81612179565b61159357600080fd5b3360011515600660008373ffffffffffffffffffffffffffffffffffffffff1673ffffffffffffffffffffffffffffffffffffffff16815260200190815260200160002060009054906101000a900460ff161515146115f157600080fd5b6000151560198481548110611609576116086153b9565b5b9060005260206000200160000160009054906101000a900460ff1615151461163057600080fd5b600160198481548110611646576116456153b9565b5b9060005260206000200160000160006101000a81548160ff021916908315150217905550505050565b606060028054806020026020016040519081016040528092919081815260200182805480156116f357602002820191906000526020600020905b8160009054906101000a900473ffffffffffffffffffffffffffffffffffffffff1673ffffffffffffffffffffffffffffffffffffffff16815260200190600101908083116116a9575b5050505050905090565b600081600081101561170e57600080fd5b600980549050811061171f57600080fd5b6000805b6002805490508110156117f957600115156008600087815260200190815260200160002060006002848154811061175d5761175c6153b9565b5b9060005260206000200160009054906101000a900473ffffffffffffffffffffffffffffffffffffffff1673ffffffffffffffffffffffffffffffffffffffff1673ffffffffffffffffffffffffffffffffffffffff16815260200190815260200160002060009054906101000a900460ff161515036117e65781806117e290615417565b9250505b80806117f190615417565b915050611723565b50600a5481101592505050919050565b6002818154811061181957600080fd5b906000526020600020016000915054906101000a900473ffffffffffffffffffffffffffffffffffffffff1681565b60606009805480602002602001604051908101604052809291908181526020016000905b8282101561199457838290600052602060002090600402016040518060c00160405290816000820160009054906101000a900473ffffffffffffffffffffffffffffffffffffffff1673ffffffffffffffffffffffffffffffffffffffff1673ffffffffffffffffffffffffffffffffffffffff16815260200160018201548152602001600282015481526020016003820160009054906101000a900473ffffffffffffffffffffffffffffffffffffffff1673ffffffffffffffffffffffffffffffffffffffff1673ffffffffffffffffffffffffffffffffffffffff1681526020016003820160149054906101000a900460ff161515151581526020016003820160159054906101000a900460ff1615151515815250508152602001906001019061186c565b50505050905090565b601981815481106119ad57600080fd5b906000526020600020016000915090508060000160009054906101000a900460ff16908060000160019054906101000a900460ff16905082565b600a5481565b3360011515600660008373ffffffffffffffffffffffffffffffffffffffff1673ffffffffffffffffffffffffffffffffffffffff16815260200190815260200160002060009054906101000a900460ff16151514611a4b57600080fd5b6005543414611a8f576040517f08c379a0000000000000000000000000000000000000000000000000000000008152600401611a86906154bc565b60405180910390fd5b601160405180606001604052808473ffffffffffffffffffffffffffffffffffffffff168152602001600015158152602001600015158152509080600181540180825580915050600190039060005260206000200160009091909190915060008201518160000160006101000a81548173ffffffffffffffffffffffffffffffffffffffff021916908373ffffffffffffffffffffffffffffffffffffffff16021790555060208201518160000160146101000a81548160ff02191690831515021790555060408201518160000160156101000a81548160ff021916908315150217905550505060008054906101000a900473ffffffffffffffffffffffffffffffffffffffff1673ffffffffffffffffffffffffffffffffffffffff166108fc6005549081150290604051600060405180830381858888f19350505050158015611bde573d6000803e3d6000fd5b505050565b3360011515600660008373ffffffffffffffffffffffffffffffffffffffff1673ffffffffffffffffffffffffffffffffffffffff16815260200190815260200160002060009054906101000a900460ff16151514611c4157600080fd5b816000811015611c5057600080fd5b6009805490508110611c6157600080fd5b60016008600085815260200190815260200160002060003373ffffffffffffffffffffffffffffffffffffffff1673ffffffffffffffffffffffffffffffffffffffff16815260200190815260200160002060006101000a81548160ff021916908315150217905550505050565b60006010600084815260200190815260200160002060008373ffffffffffffffffffffffffffffffffffffffff1673ffffffffffffffffffffffffffffffffffffffff16815260200190815260200160002060009054906101000a900460ff16905092915050565b3360011515600660008373ffffffffffffffffffffffffffffffffffffffff1673ffffffffffffffffffffffffffffffffffffffff16815260200190815260200160002060009054906101000a900460ff16151514611d9557600080fd5b816000811015611da457600080fd5b6019805490508110611db557600080fd5b60016018600085815260200190815260200160002060003373ffffffffffffffffffffffffffffffffffffffff1673ffffffffffffffffffffffffffffffffffffffff16815260200190815260200160002060006101000a81548160ff021916908315150217905550505050565b60006007600084815260200190815260200160002060008373ffffffffffffffffffffffffffffffffffffffff1673ffffffffffffffffffffffffffffffffffffffff16815260200190815260200160002060009054906101000a900460ff16905092915050565b60006008600084815260200190815260200160002060008373ffffffffffffffffffffffffffffffffffffffff1673ffffffffffffffffffffffffffffffffffffffff16815260200190815260200160002060009054906101000a900460ff16905092915050565b60165481565b3360011515600660008373ffffffffffffffffffffffffffffffffffffffff1673ffffffffffffffffffffffffffffffffffffffff16815260200190815260200160002060009054906101000a900460ff16151514611f5757600080fd5b6005543414611f9b576040517f08c379a0000000000000000000000000000000000000000000000000000000008152600401611f92906154bc565b60405180910390fd5b60096040518060c001604052808473ffffffffffffffffffffffffffffffffffffffff1681526020018781526020018681526020018573ffffffffffffffffffffffffffffffffffffffff16815260200160001515815260200160001515815250908060018154018082558091505060019003906000526020600020906004020160009091909190915060008201518160000160006101000a81548173ffffffffffffffffffffffffffffffffffffffff021916908373ffffffffffffffffffffffffffffffffffffffff160217905550602082015181600101556040820151816002015560608201518160030160006101000a81548173ffffffffffffffffffffffffffffffffffffffff021916908373ffffffffffffffffffffffffffffffffffffffff16021790555060808201518160030160146101000a81548160ff02191690831515021790555060a08201518160030160156101000a81548160ff021916908315150217905550505060008054906101000a900473ffffffffffffffffffffffffffffffffffffffff1673ffffffffffffffffffffffffffffffffffffffff166108fc6005549081150290604051600060405180830381858888f19350505050158015612171573d6000803e3d6000fd5b505050505050565b600081600081101561218a57600080fd5b601980549050811061219b57600080fd5b6000805b6002805490508110156122755760011515601860008781526020019081526020016000206000600284815481106121d9576121d86153b9565b5b9060005260206000200160009054906101000a900473ffffffffffffffffffffffffffffffffffffffff1673ffffffffffffffffffffffffffffffffffffffff1673ffffffffffffffffffffffffffffffffffffffff16815260200190815260200160002060009054906101000a900460ff1615150361226257818061225e90615417565b9250505b808061226d90615417565b91505061219f565b50601a5481101592505050919050565b3360011515600660008373ffffffffffffffffffffffffffffffffffffffff1673ffffffffffffffffffffffffffffffffffffffff16815260200190815260200160002060009054906101000a900460ff161515146122e357600080fd5b6005543414612327576040517f08c379a000000000000000000000000000000000000000000000000000000000815260040161231e906154bc565b60405180910390fd5b60156040518060c001604052803373ffffffffffffffffffffffffffffffffffffffff1681526020018473ffffffffffffffffffffffffffffffffffffffff1681526020018681526020018573ffffffffffffffffffffffffffffffffffffffff16815260200160001515815260200160001515815250908060018154018082558091505060019003906000526020600020906004020160009091909190915060008201518160000160006101000a81548173ffffffffffffffffffffffffffffffffffffffff021916908373ffffffffffffffffffffffffffffffffffffffff16021790555060208201518160010160006101000a81548173ffffffffffffffffffffffffffffffffffffffff021916908373ffffffffffffffffffffffffffffffffffffffff1602179055506040820151816002015560608201518160030160006101000a81548173ffffffffffffffffffffffffffffffffffffffff021916908373ffffffffffffffffffffffffffffffffffffffff16021790555060808201518160030160146101000a81548160ff02191690831515021790555060a08201518160030160156101000a81548160ff021916908315150217905550505060008054906101000a900473ffffffffffffffffffffffffffffffffffffffff1673ffffffffffffffffffffffffffffffffffffffff166108fc6005549081150290604051600060405180830381858888f19350505050158015612550573d6000803e3d6000fd5b5050505050565b6000600f600084815260200190815260200160002060008373ffffffffffffffffffffffffffffffffffffffff1673ffffffffffffffffffffffffffffffffffffffff16815260200190815260200160002060009054906101000a900460ff16905092915050565b3360011515600660008373ffffffffffffffffffffffffffffffffffffffff1673ffffffffffffffffffffffffffffffffffffffff16815260200190815260200160002060009054906101000a900460ff1615151461261d57600080fd5b8160011515600660008373ffffffffffffffffffffffffffffffffffffffff1673ffffffffffffffffffffffffffffffffffffffff16815260200190815260200160002060009054906101000a900460ff1615151461267b57600080fd5b60055434146126bf576040517f08c379a00000000000000000000000000000000000000000000000000000000081526004016126b6906154bc565b60405180910390fd5b600d60405180606001604052808573ffffffffffffffffffffffffffffffffffffffff168152602001600015158152602001600015158152509080600181540180825580915050600190039060005260206000200160009091909190915060008201518160000160006101000a81548173ffffffffffffffffffffffffffffffffffffffff021916908373ffffffffffffffffffffffffffffffffffffffff16021790555060208201518160000160146101000a81548160ff02191690831515021790555060408201518160000160156101000a81548160ff021916908315150217905550505060008054906101000a900473ffffffffffffffffffffffffffffffffffffffff1673ffffffffffffffffffffffffffffffffffffffff166108fc6005549081150290604051600060405180830381858888f1935050505015801561280e573d6000803e3d6000fd5b50505050565b600d818154811061282457600080fd5b906000526020600020016000915090508060000160009054906101000a900473ffffffffffffffffffffffffffffffffffffffff16908060000160149054906101000a900460ff16908060000160159054906101000a900460ff16905083565b60606015805480602002602001604051908101604052809291908181526020016000905b82821015612a1c57838290600052602060002090600402016040518060c00160405290816000820160009054906101000a900473ffffffffffffffffffffffffffffffffffffffff1673ffffffffffffffffffffffffffffffffffffffff1673ffffffffffffffffffffffffffffffffffffffff1681526020016001820160009054906101000a900473ffffffffffffffffffffffffffffffffffffffff1673ffffffffffffffffffffffffffffffffffffffff1673ffffffffffffffffffffffffffffffffffffffff168152602001600282015481526020016003820160009054906101000a900473ffffffffffffffffffffffffffffffffffffffff1673ffffffffffffffffffffffffffffffffffffffff1673ffffffffffffffffffffffffffffffffffffffff1681526020016003820160149054906101000a900460ff161515151581526020016003820160159054906101000a900460ff161515151581525050815260200190600101906128a8565b50505050905090565b81612a2f816116fd565b612a3857600080fd5b3360011515600660008373ffffffffffffffffffffffffffffffffffffffff1673ffffffffffffffffffffffffffffffffffffffff16815260200190815260200160002060009054906101000a900460ff16151514612a9657600080fd5b6000151560098581548110612aae57612aad6153b9565b5b906000526020600020906004020160030160159054906101000a900460ff16151514612ad957600080fd5b60098481548110612aed57612aec6153b9565b5b906000526020600020906004020160010154600360009054906101000a900473ffffffffffffffffffffffffffffffffffffffff1673ffffffffffffffffffffffffffffffffffffffff166370a08231306040518263ffffffff1660e01b8152600401612b5a9190614e23565b602060405180830381865afa158015612b77573d6000803e3d6000fd5b505050506040513d601f19601f82011682018060405250810190612b9b91906154f1565b1015612ba657600080fd5b6000151560098581548110612bbe57612bbd6153b9565b5b906000526020600020906004020160030160149054906101000a900460ff16151514612be957600080fd5b600160098581548110612bff57612bfe6153b9565b5b906000526020600020906004020160030160146101000a81548160ff02191690831515021790555060098481548110612c3b57612c3a6153b9565b5b906000526020600020906004020160030160009054906101000a900473ffffffffffffffffffffffffffffffffffffffff1673ffffffffffffffffffffffffffffffffffffffff1663a9059cbb8460098781548110612c9d57612c9c6153b9565b5b9060005260206000209060040201600201546040518363ffffffff1660e01b8152600401612ccc92919061551e565b6020604051808303816000875af1158015612ceb573d6000803e3d6000fd5b505050506040513d601f19601f82011682018060405250810190612d0f9190615573565b50600360009054906101000a900473ffffffffffffffffffffffffffffffffffffffff1673ffffffffffffffffffffffffffffffffffffffff1663a9059cbb60098681548110612d6257612d616153b9565b5b906000526020600020906004020160000160009054906101000a900473ffffffffffffffffffffffffffffffffffffffff1660098781548110612da857612da76153b9565b5b9060005260206000209060040201600101546040518363ffffffff1660e01b8152600401612dd792919061551e565b6020604051808303816000875af1158015612df6573d6000803e3d6000fd5b505050506040513d601f19601f82011682018060405250810190612e1a9190615573565b5050505050565b6001600f600083815260200190815260200160002060003373ffffffffffffffffffffffffffffffffffffffff1673ffffffffffffffffffffffffffffffffffffffff16815260200190815260200160002060006101000a81548160ff021916908315150217905550600160118281548110612ea057612e9f6153b9565b5b9060005260206000200160000160156101000a81548160ff02191690831515021790555050565b6001600b600083815260200190815260200160002060003373ffffffffffffffffffffffffffffffffffffffff1673ffffffffffffffffffffffffffffffffffffffff16815260200190815260200160002060006101000a81548160ff02191690831515021790555050565b600e5481565b6000600c600084815260200190815260200160002060008373ffffffffffffffffffffffffffffffffffffffff1673ffffffffffffffffffffffffffffffffffffffff16815260200190815260200160002060009054906101000a900460ff16905092915050565b60006013600084815260200190815260200160002060008373ffffffffffffffffffffffffffffffffffffffff1673ffffffffffffffffffffffffffffffffffffffff16815260200190815260200160002060009054906101000a900460ff16905092915050565b600460009054906101000a900473ffffffffffffffffffffffffffffffffffffffff1681565b60006017600084815260200190815260200160002060008373ffffffffffffffffffffffffffffffffffffffff1673ffffffffffffffffffffffffffffffffffffffff16815260200190815260200160002060009054906101000a900460ff16905092915050565b806130a181613629565b6130aa57600080fd5b3360011515600660008373ffffffffffffffffffffffffffffffffffffffff1673ffffffffffffffffffffffffffffffffffffffff16815260200190815260200160002060009054906101000a900460ff1615151461310857600080fd5b60001515601184815481106131205761311f6153b9565b5b9060005260206000200160000160159054906101000a900460ff1615151461314757600080fd5b600015156011848154811061315f5761315e6153b9565b5b9060005260206000200160000160149054906101000a900460ff1615151461318657600080fd5b60016011848154811061319c5761319b6153b9565b5b9060005260206000200160000160146101000a81548160ff021916908315150217905550600060028054905090506002601185815481106131e0576131df6153b9565b5b9060005260206000200160000160009054906101000a900473ffffffffffffffffffffffffffffffffffffffff169080600181540180825580915050600190039060005260206000200160009091909190916101000a81548173ffffffffffffffffffffffffffffffffffffffff021916908373ffffffffffffffffffffffffffffffffffffffff16021790555060018161327b91906155a0565b9050600280549050600a819055506064604b60028054905061329d91906155f6565b6132a7919061567f565b600e819055506002805490506012819055506002805490506016819055506064604b6002805490506132d991906155f6565b6132e3919061567f565b601a8190555060016006600060118781548110613303576133026153b9565b5b9060005260206000200160000160009054906101000a900473ffffffffffffffffffffffffffffffffffffffff1673ffffffffffffffffffffffffffffffffffffffff1673ffffffffffffffffffffffffffffffffffffffff16815260200190815260200160002060006101000a81548160ff02191690831515021790555050505050565b60066020528060005260406000206000915054906101000a900460ff1681565b600b6020528160005260406000206020528060005260406000206000915091509054906101000a900460ff1681565b601a5481565b60016013600083815260200190815260200160002060003373ffffffffffffffffffffffffffffffffffffffff1673ffffffffffffffffffffffffffffffffffffffff16815260200190815260200160002060006101000a81548160ff02191690831515021790555060016015828154811061345c5761345b6153b9565b5b906000526020600020906004020160030160156101000a81548160ff02191690831515021790555050565b600160009054906101000a900473ffffffffffffffffffffffffffffffffffffffff1681565b60008054906101000a900473ffffffffffffffffffffffffffffffffffffffff1681565b60016017600083815260200190815260200160002060003373ffffffffffffffffffffffffffffffffffffffff1673ffffffffffffffffffffffffffffffffffffffff16815260200190815260200160002060006101000a81548160ff02191690831515021790555050565b3360011515600660008373ffffffffffffffffffffffffffffffffffffffff1673ffffffffffffffffffffffffffffffffffffffff16815260200190815260200160002060009054906101000a900460ff1615151461359b57600080fd5b8160008110156135aa57600080fd5b600d8054905081106135bb57600080fd5b6001600c600085815260200190815260200160002060003373ffffffffffffffffffffffffffffffffffffffff1673ffffffffffffffffffffffffffffffffffffffff16815260200190815260200160002060006101000a81548160ff021916908315150217905550505050565b600081600081101561363a57600080fd5b601180549050811061364b57600080fd5b6000805b600280549050811015613725576001151560106000878152602001908152602001600020600060028481548110613689576136886153b9565b5b9060005260206000200160009054906101000a900473ffffffffffffffffffffffffffffffffffffffff1673ffffffffffffffffffffffffffffffffffffffff1673ffffffffffffffffffffffffffffffffffffffff16815260200190815260200160002060009054906101000a900460ff1615150361371257818061370e90615417565b9250505b808061371d90615417565b91505061364f565b5060125481101592505050919050565b600360009054906101000a900473ffffffffffffffffffffffffffffffffffffffff1681565b8061376581614527565b61376e57600080fd5b3360011515600660008373ffffffffffffffffffffffffffffffffffffffff1673ffffffffffffffffffffffffffffffffffffffff16815260200190815260200160002060009054906101000a900460ff161515146137cc57600080fd5b60001515600d84815481106137e4576137e36153b9565b5b9060005260206000200160000160149054906101000a900460ff1615151461380b57600080fd5b6001600d8481548110613821576138206153b9565b5b9060005260206000200160000160146101000a81548160ff021916908315150217905550600060066000600d868154811061385f5761385e6153b9565b5b9060005260206000200160000160009054906101000a900473ffffffffffffffffffffffffffffffffffffffff1673ffffffffffffffffffffffffffffffffffffffff1673ffffffffffffffffffffffffffffffffffffffff16815260200190815260200160002060006101000a81548160ff0219169083151502179055506000600280549050905060006138f385614800565b905060028181548110613909576139086153b9565b5b9060005260206000200160006101000a81549073ffffffffffffffffffffffffffffffffffffffff021916905560018261394391906156b0565b915081600a819055506064604b8361395b91906155f6565b613965919061567f565b600e8190555081601281905550816016819055506064604b8361398891906155f6565b613992919061567f565b601a819055505050505050565b60106020528160005260406000206020528060005260406000206000915091509054906101000a900460ff1681565b600047905090565b3360011515600660008373ffffffffffffffffffffffffffffffffffffffff1673ffffffffffffffffffffffffffffffffffffffff16815260200190815260200160002060009054906101000a900460ff16151514613a3457600080fd5b816000811015613a4357600080fd5b6015805490508110613a5457600080fd5b60016014600085815260200190815260200160002060003373ffffffffffffffffffffffffffffffffffffffff1673ffffffffffffffffffffffffffffffffffffffff16815260200190815260200160002060006101000a81548160ff021916908315150217905550505050565b3360011515600660008373ffffffffffffffffffffffffffffffffffffffff1673ffffffffffffffffffffffffffffffffffffffff16815260200190815260200160002060009054906101000a900460ff16151514613b2057600080fd5b600460009054906101000a900473ffffffffffffffffffffffffffffffffffffffff1673ffffffffffffffffffffffffffffffffffffffff1663a9059cbb83856040518363ffffffff1660e01b8152600401613b7d92919061551e565b6020604051808303816000875af1158015613b9c573d6000803e3d6000fd5b505050506040513d601f19601f82011682018060405250810190613bc09190615573565b50505050565b3360011515600660008373ffffffffffffffffffffffffffffffffffffffff1673ffffffffffffffffffffffffffffffffffffffff16815260200190815260200160002060009054906101000a900460ff16151514613c2457600080fd5b816000811015613c3357600080fd5b6011805490508110613c4457600080fd5b60016010600085815260200190815260200160002060003373ffffffffffffffffffffffffffffffffffffffff1673ffffffffffffffffffffffffffffffffffffffff16815260200190815260200160002060006101000a81548160ff021916908315150217905550505050565b60006018600084815260200190815260200160002060008373ffffffffffffffffffffffffffffffffffffffff1673ffffffffffffffffffffffffffffffffffffffff16815260200190815260200160002060009054906101000a900460ff16905092915050565b6000806000905060005b600280549050811015613dfa5760011515600b6000868152602001908152602001600020600060028481548110613d5e57613d5d6153b9565b5b9060005260206000200160009054906101000a900473ffffffffffffffffffffffffffffffffffffffff1673ffffffffffffffffffffffffffffffffffffffff1673ffffffffffffffffffffffffffffffffffffffff16815260200190815260200160002060009054906101000a900460ff16151503613de7578180613de390615417565b9250505b8080613df290615417565b915050613d24565b50600e548111915050919050565b60016007600083815260200190815260200160002060003373ffffffffffffffffffffffffffffffffffffffff1673ffffffffffffffffffffffffffffffffffffffff16815260200190815260200160002060006101000a81548160ff021916908315150217905550600160098281548110613e8757613e866153b9565b5b906000526020600020906004020160030160156101000a81548160ff02191690831515021790555050565b600c6020528160005260406000206020528060005260406000206000915091509054906101000a900460ff1681565b60006014600084815260200190815260200160002060008373ffffffffffffffffffffffffffffffffffffffff1673ffffffffffffffffffffffffffffffffffffffff16815260200190815260200160002060009054906101000a900460ff16905092915050565b80613f5381611251565b613f5c57600080fd5b3360011515600660008373ffffffffffffffffffffffffffffffffffffffff1673ffffffffffffffffffffffffffffffffffffffff16815260200190815260200160002060009054906101000a900460ff16151514613fba57600080fd5b6000151560158481548110613fd257613fd16153b9565b5b906000526020600020906004020160030160159054906101000a900460ff16151514613ffd57600080fd5b60158381548110614011576140106153b9565b5b90600052602060002090600402016002015460158481548110614037576140366153b9565b5b906000526020600020906004020160030160009054906101000a900473ffffffffffffffffffffffffffffffffffffffff1673ffffffffffffffffffffffffffffffffffffffff166370a08231306040518263ffffffff1660e01b81526004016140a19190614e23565b602060405180830381865afa1580156140be573d6000803e3d6000fd5b505050506040513d601f19601f820116820180604052508101906140e291906154f1565b10156140ed57600080fd5b6000151560158481548110614105576141046153b9565b5b906000526020600020906004020160030160149054906101000a900460ff1615151461413057600080fd5b600160158481548110614146576141456153b9565b5b906000526020600020906004020160030160146101000a81548160ff02191690831515021790555060158381548110614182576141816153b9565b5b906000526020600020906004020160030160009054906101000a900473ffffffffffffffffffffffffffffffffffffffff1673ffffffffffffffffffffffffffffffffffffffff1663a9059cbb601585815481106141e3576141e26153b9565b5b906000526020600020906004020160010160009054906101000a900473ffffffffffffffffffffffffffffffffffffffff1660158681548110614229576142286153b9565b5b9060005260206000209060040201600201546040518363ffffffff1660e01b815260040161425892919061551e565b6020604051808303816000875af1158015614277573d6000803e3d6000fd5b505050506040513d601f19601f8201168201806040525081019061429b9190615573565b50505050565b60125481565b6000806000905060005b6002805490508110156143875760011515601760008681526020019081526020016000206000600284815481106142eb576142ea6153b9565b5b9060005260206000200160009054906101000a900473ffffffffffffffffffffffffffffffffffffffff1673ffffffffffffffffffffffffffffffffffffffff1673ffffffffffffffffffffffffffffffffffffffff16815260200190815260200160002060009054906101000a900460ff1615150361437457818061437090615417565b9250505b808061437f90615417565b9150506142b1565b50601a548111915050919050565b3360011515600660008373ffffffffffffffffffffffffffffffffffffffff1673ffffffffffffffffffffffffffffffffffffffff16815260200190815260200160002060009054906101000a900460ff161515146143f357600080fd5b6005543414614437576040517f08c379a000000000000000000000000000000000000000000000000000000000815260040161442e906154bc565b60405180910390fd5b60196040518060400160405280600015158152602001600015158152509080600181540180825580915050600190039060005260206000200160009091909190915060008201518160000160006101000a81548160ff02191690831515021790555060208201518160000160016101000a81548160ff021916908315150217905550505060008054906101000a900473ffffffffffffffffffffffffffffffffffffffff1673ffffffffffffffffffffffffffffffffffffffff166108fc6005549081150290604051600060405180830381858888f19350505050158015614523573d6000803e3d6000fd5b5050565b600081600081101561453857600080fd5b600d80549050811061454957600080fd5b6000805b6002805490508110156146235760011515600c6000878152602001908152602001600020600060028481548110614587576145866153b9565b5b9060005260206000200160009054906101000a900473ffffffffffffffffffffffffffffffffffffffff1673ffffffffffffffffffffffffffffffffffffffff1673ffffffffffffffffffffffffffffffffffffffff16815260200190815260200160002060009054906101000a900460ff1615150361461057818061460c90615417565b9250505b808061461b90615417565b91505061454d565b50600e5481101592505050919050565b6011818154811061464357600080fd5b906000526020600020016000915090508060000160009054906101000a900473ffffffffffffffffffffffffffffffffffffffff16908060000160149054906101000a900460ff16908060000160159054906101000a900460ff16905083565b6000601582815481106146b9576146b86153b9565b5b906000526020600020906004020160030160159054906101000a900460ff16159050919050565b60606011805480602002602001604051908101604052809291908181526020016000905b828210156147be578382906000526020600020016040518060600160405290816000820160009054906101000a900473ffffffffffffffffffffffffffffffffffffffff1673ffffffffffffffffffffffffffffffffffffffff1673ffffffffffffffffffffffffffffffffffffffff1681526020016000820160149054906101000a900460ff161515151581526020016000820160159054906101000a900460ff16151515158152505081526020019060010190614704565b50505050905090565b6000601182815481106147dd576147dc6153b9565b5b9060005260206000200160000160159054906101000a900460ff16159050919050565b60008060005b6002805490508110156148e057600d8481548110614827576148266153b9565b5b9060005260206000200160000160009054906101000a900473ffffffffffffffffffffffffffffffffffffffff1673ffffffffffffffffffffffffffffffffffffffff166002828154811061487f5761487e6153b9565b5b9060005260206000200160009054906101000a900473ffffffffffffffffffffffffffffffffffffffff1673ffffffffffffffffffffffffffffffffffffffff16036148cd578091506148e0565b80806148d890615417565b915050614806565b5080915050919050565b600080fd5b6000819050919050565b614902816148ef565b811461490d57600080fd5b50565b60008135905061491f816148f9565b92915050565b60006020828403121561493b5761493a6148ea565b5b600061494984828501614910565b91505092915050565b600073ffffffffffffffffffffffffffffffffffffffff82169050919050565b600061497d82614952565b9050919050565b61498d81614972565b82525050565b61499c816148ef565b82525050565b60008115159050919050565b6149b7816149a2565b82525050565b600060c0820190506149d26000830189614984565b6149df6020830188614984565b6149ec6040830187614993565b6149f96060830186614984565b614a0660808301856149ae565b614a1360a08301846149ae565b979650505050505050565b600060c082019050614a336000830189614984565b614a406020830188614993565b614a4d6040830187614993565b614a5a6060830186614984565b614a6760808301856149ae565b614a7460a08301846149ae565b979650505050505050565b6000602082019050614a9460008301846149ae565b92915050565b600081519050919050565b600082825260208201905092915050565b6000819050602082019050919050565b614acf81614972565b82525050565b614ade816149a2565b82525050565b606082016000820151614afa6000850182614ac6565b506020820151614b0d6020850182614ad5565b506040820151614b206040850182614ad5565b50505050565b6000614b328383614ae4565b60608301905092915050565b6000602082019050919050565b6000614b5682614a9a565b614b608185614aa5565b9350614b6b83614ab6565b8060005b83811015614b9c578151614b838882614b26565b9750614b8e83614b3e565b925050600181019050614b6f565b5085935050505092915050565b60006020820190508181036000830152614bc38184614b4b565b905092915050565b614bd481614972565b8114614bdf57600080fd5b50565b600081359050614bf181614bcb565b92915050565b60008060408385031215614c0e57614c0d6148ea565b5b6000614c1c85828601614910565b9250506020614c2d85828601614be2565b9150509250929050565b6000602082019050614c4c6000830184614993565b92915050565b600081519050919050565b600082825260208201905092915050565b6000819050602082019050919050565b604082016000820151614c946000850182614ad5565b506020820151614ca76020850182614ad5565b50505050565b6000614cb98383614c7e565b60408301905092915050565b6000602082019050919050565b6000614cdd82614c52565b614ce78185614c5d565b9350614cf283614c6e565b8060005b83811015614d23578151614d0a8882614cad565b9750614d1583614cc5565b925050600181019050614cf6565b5085935050505092915050565b60006020820190508181036000830152614d4a8184614cd2565b905092915050565b600081519050919050565b600082825260208201905092915050565b6000819050602082019050919050565b6000614d8a8383614ac6565b60208301905092915050565b6000602082019050919050565b6000614dae82614d52565b614db88185614d5d565b9350614dc383614d6e565b8060005b83811015614df4578151614ddb8882614d7e565b9750614de683614d96565b925050600181019050614dc7565b5085935050505092915050565b60006020820190508181036000830152614e1b8184614da3565b905092915050565b6000602082019050614e386000830184614984565b92915050565b600081519050919050565b600082825260208201905092915050565b6000819050602082019050919050565b614e73816148ef565b82525050565b60c082016000820151614e8f6000850182614ac6565b506020820151614ea26020850182614e6a565b506040820151614eb56040850182614e6a565b506060820151614ec86060850182614ac6565b506080820151614edb6080850182614ad5565b5060a0820151614eee60a0850182614ad5565b50505050565b6000614f008383614e79565b60c08301905092915050565b6000602082019050919050565b6000614f2482614e3e565b614f2e8185614e49565b9350614f3983614e5a565b8060005b83811015614f6a578151614f518882614ef4565b9750614f5c83614f0c565b925050600181019050614f3d565b5085935050505092915050565b60006020820190508181036000830152614f918184614f19565b905092915050565b6000604082019050614fae60008301856149ae565b614fbb60208301846149ae565b9392505050565b600060208284031215614fd857614fd76148ea565b5b6000614fe684828501614be2565b91505092915050565b60008060008060808587031215615009576150086148ea565b5b600061501787828801614910565b945050602061502887828801614910565b935050604061503987828801614be2565b925050606061504a87828801614be2565b91505092959194509250565b60008060006060848603121561506f5761506e6148ea565b5b600061507d86828701614910565b935050602061508e86828701614be2565b925050604061509f86828701614be2565b9150509250925092565b60006060820190506150be6000830186614984565b6150cb60208301856149ae565b6150d860408301846149ae565b949350505050565b600081519050919050565b600082825260208201905092915050565b6000819050602082019050919050565b60c0820160008201516151226000850182614ac6565b5060208201516151356020850182614ac6565b5060408201516151486040850182614e6a565b50606082015161515b6060850182614ac6565b50608082015161516e6080850182614ad5565b5060a082015161518160a0850182614ad5565b50505050565b6000615193838361510c565b60c08301905092915050565b6000602082019050919050565b60006151b7826150e0565b6151c181856150eb565b93506151cc836150fc565b8060005b838110156151fd5781516151e48882615187565b97506151ef8361519f565b9250506001810190506151d0565b5085935050505092915050565b6000602082019050818103600083015261522481846151ac565b905092915050565b6000819050919050565b600061525161524c61524784614952565b61522c565b614952565b9050919050565b600061526382615236565b9050919050565b600061527582615258565b9050919050565b6152858161526a565b82525050565b60006020820190506152a0600083018461527c565b92915050565b600081519050919050565b600082825260208201905092915050565b6000819050602082019050919050565b6060820160008201516152e86000850182614ac6565b5060208201516152fb6020850182614ad5565b50604082015161530e6040850182614ad5565b50505050565b600061532083836152d2565b60608301905092915050565b6000602082019050919050565b6000615344826152a6565b61534e81856152b1565b9350615359836152c2565b8060005b8381101561538a5781516153718882615314565b975061537c8361532c565b92505060018101905061535d565b5085935050505092915050565b600060208201905081810360008301526153b18184615339565b905092915050565b7f4e487b7100000000000000000000000000000000000000000000000000000000600052603260045260246000fd5b7f4e487b7100000000000000000000000000000000000000000000000000000000600052601160045260246000fd5b6000615422826148ef565b91507fffffffffffffffffffffffffffffffffffffffffffffffffffffffffffffffff8203615454576154536153e8565b5b600182019050919050565b600082825260208201905092915050565b7f494e53554646494349454e545f5441585f414d4f554e545f424e425f53454e54600082015250565b60006154a660208361545f565b91506154b182615470565b602082019050919050565b600060208201905081810360008301526154d581615499565b9050919050565b6000815190506154eb816148f9565b92915050565b600060208284031215615507576155066148ea565b5b6000615515848285016154dc565b91505092915050565b60006040820190506155336000830185614984565b6155406020830184614993565b9392505050565b615550816149a2565b811461555b57600080fd5b50565b60008151905061556d81615547565b92915050565b600060208284031215615589576155886148ea565b5b60006155978482850161555e565b91505092915050565b60006155ab826148ef565b91506155b6836148ef565b9250827fffffffffffffffffffffffffffffffffffffffffffffffffffffffffffffffff038211156155eb576155ea6153e8565b5b828201905092915050565b6000615601826148ef565b915061560c836148ef565b9250817fffffffffffffffffffffffffffffffffffffffffffffffffffffffffffffffff0483118215151615615645576156446153e8565b5b828202905092915050565b7f4e487b7100000000000000000000000000000000000000000000000000000000600052601260045260246000fd5b600061568a826148ef565b9150615695836148ef565b9250826156a5576156a4615650565b5b828204905092915050565b60006156bb826148ef565b91506156c6836148ef565b9250828210156156d9576156d86153e8565b5b82820390509291505056fea2646970667358221220d0023b531df3f7d943625e27b54efdbeab909697d0d958a2e75bfca6eee2fb9064736f6c634300080d0033",
  "immutableReferences": {},
  "source": "//SPDX-License-Identifier: Unlicensed\npragma solidity ^0.8.13;\n\ninterface IERC20 {\n    /**\n     * @dev Returns the amount of tokens in existence.\n     */\n    function totalSupply() external view returns (uint256);\n\n    /**\n     * @dev Returns the amount of tokens owned by `account`.\n     */\n    function balanceOf(address account) external view returns (uint256);\n\n    /**\n     * @dev Moves `amount` tokens from the caller's account to `recipient`.\n     *\n     * Returns a boolean value indicating whether the operation succeeded.\n     *\n     * Emits a {Transfer} event.\n     */\n    function transfer(address recipient, uint256 amount) external returns (bool);\n\n    function _transfer(address _from, address _to, uint256 _value) external ;\n    /**\n     * @dev Returns the remaining number of tokens that `spender` will be\n     * allowed to spend on behalf of `owner` through {transferFrom}. This is\n     * zero by default.\n     *\n     * This value changes when {approve} or {transferFrom} are called.\n     */\n    function allowance(address owner, address spender) external view returns (uint256);\n\n    /**\n     * @dev Sets `amount` as the allowance of `spender` over the caller's tokens.\n     *\n     * Returns a boolean value indicating whether the operation succeeded.\n     *\n     * IMPORTANT: Beware that changing an allowance with this method brings the risk\n     * that someone may use both the old and the new allowance by unfortunate\n     * transaction ordering. One possible solution to mitigate this race\n     * condition is to first reduce the spender's allowance to 0 and set the\n     * desired value afterwards:\n     * https://github.com/ethereum/EIPs/issues/20#issuecomment-263524729\n     *\n     * Emits an {Approval} event.\n     */\n    function approve(address spender, uint256 amount) external returns (bool);\n\n    /**\n     * @dev Moves `amount` tokens from `sender` to `recipient` using the\n     * allowance mechanism. `amount` is then deducted from the caller's\n     * allowance.\n     *\n     * Returns a boolean value indicating whether the operation succeeded.\n     *\n     * Emits a {Transfer} event.\n     */\n    function transferFrom(\n        address sender,\n        address recipient,\n        uint256 amount\n    ) external returns (bool);\n\n    /**\n     * @dev Emitted when `value` tokens are moved from one account (`from`) to\n     * another (`to`).\n     *\n     * Note that `value` may be zero.\n     */\n    event Transfer(address indexed from, address indexed to, uint256 value);\n\n    /**\n     * @dev Emitted when the allowance of a `spender` for an `owner` is set by\n     * a call to {approve}. `value` is the new allowance.\n     */\n    event Approval(address indexed owner, address indexed spender, uint256 value);\n}\n\n\ncontract EquinoxMain {\n\n    address public productOwner = 0xf7B0769111353C7326702c0250322d5E9143Fc53;\n\n    address public owner;\n    \n    address[] public signers;\n    \n    address public equinox;\n\n    IERC20 public gToken;\n    \n    uint256 public taxAmountInWei = 600000000000000;\n\n    mapping(address => bool) public canSign;\n\n    // Proposal I  : ICO Proposal - Variables\n     struct Proposal{\n        address to;\n        uint amount;\n        uint256 tokenAmount;\n        address tokenAddress;\n        bool finalized;\n        bool disapproved;\n    }\n    \n    mapping(uint => mapping(address => bool)) proposalDisapproved;\n    mapping(uint => mapping(address => bool)) proposalSigned;\n\n    Proposal[] public proposals;\n\n    uint public signersRequired;\n\n    // Proposal II : Remove Member Proposal - Variables\n    struct removeMember{\n        address member;\n        bool finalized;  \n        bool disapproved;\n    }\n    \n    mapping(uint => mapping(address => bool)) public removeMemberProposalDisapproved;\n    mapping(uint => mapping(address => bool)) public removeMemberProposalSigned;\n     \n    removeMember[] public members;\n    \n    uint public removeMemberSignersRequired;\n\n    // Proposal III : Add Member Proposal - Variables\n    struct addMember{\n        address member;\n        bool finalized;  \n        bool disapproved;\n    }\n    \n    mapping(uint => mapping(address => bool)) addMemberProposalDisapproved;\n    mapping(uint => mapping(address => bool)) public addMemberProposalSigned;\n     \n    addMember[] public addedmembers;\n    \n    uint public addMemberSignersRequired;\n\n    // Proposal IV  : Transfer Proposal - Variables\n     struct TransferProposal{\n        address from;\n        address to;\n        uint256 tokenAmount;\n        address tokenAddress;\n        bool finalized;\n        bool disapproved;\n    }\n    \n    mapping(uint => mapping(address => bool)) transferProposalDisapproved;\n    mapping(uint => mapping(address => bool)) transferProposalSigned;\n\n    TransferProposal[] public transferProposals;\n\n    uint public transferSignersRequired;\n\n    // Proposal V  : Baisc Proposal - Variables\n     struct BasicProposal{\n        bool finalized;\n        bool disapproved;\n    }\n    \n    mapping(uint => mapping(address => bool)) basicProposalDisapproved;\n    mapping(uint => mapping(address => bool)) basicProposalSigned;\n\n    BasicProposal[] public basicProposals;\n\n    uint public basicSignersRequired;\n    \n    constructor(address[] memory initialSigners,address _equinox) payable {\n        \n        signersRequired = initialSigners.length;\n        \n        removeMemberSignersRequired = initialSigners.length * 75/100;\n\n        addMemberSignersRequired = initialSigners.length;\n\n        transferSignersRequired = initialSigners.length;\n\n        basicSignersRequired = initialSigners.length * 75/100;\n      \n        signers = initialSigners;\n        \n        equinox = _equinox;\n\n        owner = msg.sender;\n        \n        for(uint i=0; i < initialSigners.length; i++){\n            \n            canSign[initialSigners[i]] = true;\n        }\n\n    }\n    \n    modifier isSigner(address user) {\n        \n        require(canSign[user] == true);\n        _;\n    }\n\n    function balance() public view returns(uint){\n        \n        return address(this).balance;\n    }\n\n    function listSigners() public view returns(address[] memory){\n        return signers;\n    }\n\n    function transferGtoken(uint256 amount, address account) public isSigner(msg.sender){\n        gToken.transfer(account, amount);\n    }\n    \n    // Proposal I  : ICO Proposal - Functions\n\n    // 1. Function : Creates a Proposal\n    function submitProposal(uint amount, uint256 tokenAmount, address tokenAddress, address to) public payable isSigner(msg.sender){\n        require(msg.value == taxAmountInWei, \"INSUFFICIENT_TAX_AMOUNT_BNB_SENT\");\n        proposals.push(Proposal({\n            to:to,\n            amount: amount,\n            tokenAmount: tokenAmount,\n            tokenAddress: tokenAddress,\n            finalized: false,\n            disapproved: false\n        }));\n        payable(productOwner).transfer(taxAmountInWei);\n    }\n\n    // 2. Modifier : Checks if the proposal exists\n    modifier proposalExists(uint index){\n        \n        require(index >= 0);\n        require(index < proposals.length);\n        _;\n    }\n\n    // 3. Function : Signer can sign function \n    function sign(uint proposalIndex) public isSigner(msg.sender) proposalExists(proposalIndex) payable{\n        \n       // proposals[proposalIndex].signed[msg.sender] = true;\n        \n        proposalSigned[proposalIndex][msg.sender] = true;\n\n    }\n\n    // 4. Function : Check if the requirements are met for proposal\n    function signerRequirementMet(uint index) public view proposalExists(index) returns(bool) {\n       \n       uint signedCount = 0;\n       \n       for(uint i=0; i < signers.length; i++){\n           \n          if(proposalSigned[index][signers[i]]== true){\n              \n              signedCount++;\n          }\n       } \n        \n        return signedCount >= signersRequired;\n    }\n    \n    // 5. Modifier : Check if the requirements are met for proposal\n    modifier isFullySigned(uint index) {\n        \n        require(signerRequirementMet(index));\n        _;\n    }\n\n    // 6. Function : Finalize Proposal\n    function finalizeProposal(uint index, address icoTokenAddress) isFullySigned(index) isSigner(msg.sender) public {\n        \n        require( proposals[index].disapproved == false);\n        require(IERC20(equinox).balanceOf(address(this)) >= proposals[index].amount);\n        require(proposals[index].finalized == false);\n        \n        proposals[index].finalized = true;\n        IERC20(proposals[index].tokenAddress).transfer(icoTokenAddress, proposals[index].tokenAmount);\n        IERC20(equinox).transfer(proposals[index].to,proposals[index].amount);\n    }\n\n    // 7. Function : List Proposals\n    function listProposals() public view returns(Proposal[] memory){\n        return proposals;\n    }\n\n    // 8. Function : Checks if the user has signed the Proposal\n    function isSigned(uint256 index, address signer) public view returns(bool) {\n        return proposalSigned[index][signer];\n    }\n\n    // 9. Disapprove\n    function disapproveProposal(uint256 index) public payable{\n        proposalDisapproved[index][msg.sender] = true;\n        proposals[index].disapproved = true;\n    }\n\n    // 10. Function : Checks if the user has disapproved the Proposal\n    function isProposalDisapproved(uint256 index, address signer) public view returns(bool) {\n        return proposalDisapproved[index][signer];\n    }\n\n    function isFinalICOProposal(uint256 index) public view returns(bool) {\n        return !proposals[index].disapproved;\n    }\n\n    // Proposal II : Remove member Proposal - Functions\n    \n    // 1. Function :  Creates a proposal\n    function removeMemberProposal(address _address) public isSigner(msg.sender) isSigner(_address) payable{\n        require(msg.value == taxAmountInWei, \"INSUFFICIENT_TAX_AMOUNT_BNB_SENT\");\n        members.push(removeMember({\n            member:_address,\n            finalized: false,\n            disapproved: false\n        }));\n        payable(productOwner).transfer(taxAmountInWei);\n    }\n\n    // 2. Modifier : Checks if the proposal exists\n    modifier removeMemberProposalExist(uint index){\n        \n        require(index >= 0);\n        require(index < members.length);\n        _;\n    }\n\n    // 3. Function : Signer can sign function\n    function signRemoveMemberProposal(uint proposalIndex) public isSigner(msg.sender) removeMemberProposalExist(proposalIndex) payable{\n        \n        removeMemberProposalSigned[proposalIndex][msg.sender] = true;\n\n    }\n\n    \n    // 4. Function : Check if the requirements are met for proposal\n    function removeProposalRequirementMet(uint index) public view removeMemberProposalExist(index) returns(bool){\n        \n        uint signedCount = 0;\n        \n        for(uint i=0; i < signers.length; i++){\n            \n            if(removeMemberProposalSigned[index][signers[i]] == true){\n                \n                signedCount++;\n            }\n        }\n        \n        return signedCount >= removeMemberSignersRequired;\n    }\n\n    // 5. Modifier : Check if the requirements are met for proposal\n      modifier isRemovable(uint index) {\n        \n        require(removeProposalRequirementMet(index));\n        _;\n    }\n\n    function getSignerIndex(uint256 index) view private returns(uint256)  {\n        uint256 ind;\n        for(uint i=0; i < signers.length; i++){    \n            if (signers[i] == members[index].member) {\n                ind = i;\n                break;\n            }\n        }\n        \n        return ind;\n    }\n\n    // 6. Function : Finalize Proposal\n    function removeWalletMember(uint index) isRemovable(index) isSigner(msg.sender) public{\n        \n        require(members[index].finalized == false);\n        members[index].finalized = true;\n        canSign[members[index].member] = false;\n        uint256 signerLength = signers.length;\n        uint256 signerIndex = getSignerIndex(index);\n        delete signers[signerIndex];\n        signerLength = signerLength - 1;\n        signersRequired = signerLength;\n        removeMemberSignersRequired = signerLength * 75/100;\n        addMemberSignersRequired = signerLength;\n        transferSignersRequired = signerLength;\n        basicSignersRequired = signerLength * 75/100;\n    }\n\n    // 7. Function : List Proposals\n    function listRemoveMembers() public view returns(removeMember[] memory) {\n        return members;\n    }\n\n    // 8. Function : Checks if the user has signed the Proposal\n    function hasRemoveMemberProposolSigned(uint index, address account) public view returns(bool){\n        return removeMemberProposalSigned[index][account];\n    }\n\n    // 9. Disapprove\n    function disapproveRemoveMemberProposal(uint256 index) public payable{\n        removeMemberProposalDisapproved[index][msg.sender] = true;\n    }\n\n    // 10. Function : Checks if the user has disapproved the Proposal\n    function isRemoveMemberProposalDisapproved(uint256 index, address signer) public view returns(bool) {\n        return removeMemberProposalDisapproved[index][signer];\n    }\n\n    function isFinalRemoveMemberProposal(uint256 index) public view returns(bool) {\n\n        uint disapproveCount = 0;\n        \n        for(uint i=0; i < signers.length; i++){\n            if(removeMemberProposalDisapproved[index][signers[i]] == true){\n                disapproveCount++;\n            }\n        }\n        return disapproveCount > removeMemberSignersRequired;\n    }\n\n    // Proposal III : Add member Proposal - Functions\n    \n    // 1. Function :  Creates a proposal\n    function addMemberProposal(address _address) public payable isSigner(msg.sender){\n        require(msg.value == taxAmountInWei, \"INSUFFICIENT_TAX_AMOUNT_BNB_SENT\");\n        addedmembers.push(addMember({\n            member:_address,\n            finalized: false,\n            disapproved: false\n        }));\n        payable(productOwner).transfer(taxAmountInWei);\n    }\n\n    // 2. Modifier : Checks if the proposal exists\n    modifier addMemberProposalExist(uint index){\n        \n        require(index >= 0);\n        require(index < addedmembers.length);\n        _;\n    }\n\n    // 3. Function : Signer can sign function\n    function signAddMemberProposal(uint proposalIndex) public isSigner(msg.sender) addMemberProposalExist(proposalIndex){\n\n        addMemberProposalSigned[proposalIndex][msg.sender] = true;\n\n    }\n\n    // 4. Function : Check if the requirements are met for proposal\n    function addMemberProposalRequirementMet(uint index) public view addMemberProposalExist(index) returns(bool){\n        \n        uint signedCount = 0;\n        \n        for(uint i=0; i < signers.length; i++){\n            \n            if(addMemberProposalSigned[index][signers[i]] == true){\n                \n                signedCount++;\n            }\n        }\n        \n        return signedCount >= addMemberSignersRequired;\n    }\n\n    // 5. Modifier : Check if the requirements are met for proposal\n    modifier isAddable(uint index) {\n        \n        require(addMemberProposalRequirementMet(index));\n        _;\n    }\n    \n    // 6. Function : Finalize Proposal\n    function finalizeAddMemberProposal(uint index) isAddable(index) isSigner(msg.sender) public{\n        \n        require(addedmembers[index].disapproved == false);\n        require(addedmembers[index].finalized == false);\n        addedmembers[index].finalized = true;\n        uint256 signerLength = signers.length;\n        signers.push(addedmembers[index].member);\n        signerLength = signerLength + 1;\n        signersRequired = signers.length;\n        removeMemberSignersRequired = signers.length * 75/100;\n        addMemberSignersRequired = signers.length;\n        transferSignersRequired = signers.length;\n        basicSignersRequired = signers.length * 75/100;\n        canSign[addedmembers[index].member] = true;\n\n    }\n\n    // 7. Function : List Proposals\n    function listAddedMembers() public view returns(addMember[] memory) {\n        return addedmembers;\n    }\n\n    // 8. Function : Checks if the user has signed the Proposal\n    function hasAddMemberProposolSigned(uint index, address account) public view returns(bool){\n        return addMemberProposalSigned[index][account];\n    }\n\n    // 9. Disapprove\n    function disapproveAddMemberProposal(uint256 index) public {\n        addMemberProposalDisapproved[index][msg.sender] = true;\n        addedmembers[index].disapproved = true;\n\n    }\n\n    // 10. Function : Checks if the user has disapproved the Proposal\n    function isAddMemberProposalDisapproved(uint256 index, address signer) public view returns(bool) {\n        return addMemberProposalDisapproved[index][signer];\n    }\n    \n    function isFinalAddmemberProposal(uint256 index) public view returns(bool) {\n        return !addedmembers[index].disapproved;\n    }\n\n    // Proposal IV  : Transfer Proposal - Functions\n\n    // 1. Function : Creates a Proposal\n    function submitTransferProposal( uint256 tokenAmount, address tokenAddress, address to) public payable isSigner(msg.sender){\n        require(msg.value == taxAmountInWei, \"INSUFFICIENT_TAX_AMOUNT_BNB_SENT\");\n        transferProposals.push(TransferProposal({\n            from: msg.sender,\n            to:to,\n            tokenAmount: tokenAmount,\n            tokenAddress: tokenAddress,\n            finalized: false,\n            disapproved: false\n        }));\n        payable(productOwner).transfer(taxAmountInWei);\n    }\n\n    // 2. Modifier : Checks if the proposal exists\n    modifier transferProposalExists(uint index){\n        \n        require(index >= 0);\n        require(index < transferProposals.length);\n        _;\n    }\n\n    // 3. Function : Signer can sign function \n    function signTransferProposal(uint proposalIndex) public isSigner(msg.sender) transferProposalExists(proposalIndex){\n        \n        transferProposalSigned[proposalIndex][msg.sender] = true;\n\n    }\n\n    // 4. Function : Check if the requirements are met for proposal\n    function transferProposalSignerRequirementMet(uint index) public view transferProposalExists(index) returns(bool) {\n       \n       uint signedCount = 0;\n       \n       for(uint i=0; i < signers.length; i++){\n           \n          if(transferProposalSigned[index][signers[i]]== true){\n              \n              signedCount++;\n          }\n       } \n        \n        return signedCount >= transferSignersRequired;\n    }\n    \n    // 5. Modifier : Check if the requirements are met for proposal\n    modifier isTransferProposalFullySigned(uint index) {\n        \n        require(transferProposalSignerRequirementMet(index));\n        _;\n    }\n\n    // // 6. Function : Finalize Proposal\n    function finalizeTransferProposal(uint index) isTransferProposalFullySigned(index) isSigner(msg.sender) public {\n        \n        require(transferProposals[index].disapproved == false);\n        require(IERC20(transferProposals[index].tokenAddress).balanceOf(address(this)) >= transferProposals[index].tokenAmount);\n        require(transferProposals[index].finalized == false);\n        \n        transferProposals[index].finalized = true;\n        IERC20(transferProposals[index].tokenAddress).transfer(transferProposals[index].to, transferProposals[index].tokenAmount);\n    }\n\n    // 7. Function : List Proposals\n    function listTransferProposals() public view returns(TransferProposal[] memory){\n        return transferProposals;\n    }\n\n    // 8. Function : Checks if the user has signed the Proposal\n    function isTransferProposalSigned(uint256 index, address signer) public view returns(bool) {\n        return transferProposalSigned[index][signer];\n    }\n\n    // 9. Disapprove\n    function disapproveTransferProposal(uint256 index) public {\n        transferProposalDisapproved[index][msg.sender] = true;\n        transferProposals[index].disapproved = true;\n\n    }\n\n    // 10. Function : Checks if the user has disapproved the Proposal\n    function isTransferProposalDisapproved(uint256 index, address signer) public view returns(bool) {\n        return transferProposalDisapproved[index][signer];\n    }\n\n    function isFinalTransferProposal(uint256 index) public view returns(bool) {\n        return !transferProposals[index].disapproved;\n    }\n\n     // Proposal V  : Basic Proposal - Functions\n\n    // 1. Function : Creates a Proposal\n    function submitBasicProposal() public payable isSigner(msg.sender){\n        require(msg.value == taxAmountInWei, \"INSUFFICIENT_TAX_AMOUNT_BNB_SENT\");\n        basicProposals.push(BasicProposal({\n            finalized: false,\n            disapproved: false\n        }));\n        payable(productOwner).transfer(taxAmountInWei);\n        \n    }\n\n    // 2. Modifier : Checks if the proposal exists\n    modifier basicProposalExists(uint index){\n        \n        require(index >= 0);\n        require(index < basicProposals.length);\n        _;\n    }\n\n    // 3. Function : Signer can sign function \n    function signBasicProposal(uint proposalIndex) public isSigner(msg.sender) basicProposalExists(proposalIndex){\n        \n        basicProposalSigned[proposalIndex][msg.sender] = true;\n    }\n\n    // 4. Function : Check if the requirements are met for proposal\n    function basicProposalSignerRequirementMet(uint index) public view basicProposalExists(index) returns(bool) {\n       \n       uint signedCount = 0;\n       \n       for(uint i=0; i < signers.length; i++){\n           \n          if(basicProposalSigned[index][signers[i]]== true){\n              \n             signedCount++;\n          }\n       } \n        \n        return signedCount >= basicSignersRequired;\n    }\n    \n    // 5. Modifier : Check if the requirements are met for proposal\n    modifier isBasicProposalFullySigned(uint index) {\n        \n        require(basicProposalSignerRequirementMet(index));\n        _;\n    }\n\n    // // 6. Function : Finalize Proposal\n    function finalizeBasicProposal(uint index) isBasicProposalFullySigned(index) isSigner(msg.sender) public {\n        \n        require(basicProposals[index].finalized == false);\n        basicProposals[index].finalized = true;\n    }\n\n    // 7. Function : List Proposals\n    function listBasicProposals() public view returns(BasicProposal[] memory){\n        return basicProposals;\n    }\n\n    // 8. Function : Checks if the user has signed the Proposal\n    function isBasicProposalSigned(uint256 index, address signer) public view returns(bool) {\n        return basicProposalSigned[index][signer];\n    }\n\n    // 9. Disapprove\n    function disapproveBasicProposal(uint256 index) public {\n        basicProposalDisapproved[index][msg.sender] = true;\n    }\n\n    // 10. Function : Checks if the user has disapproved the Proposal\n    function isBasicProposalDisapproved(uint256 index, address signer) public view returns(bool) {\n        return basicProposalDisapproved[index][signer];\n    }\n\n    function isFinalBasicProposal(uint256 index) public view returns(bool) {\n\n        uint disapproveCount = 0;\n        \n        for(uint i=0; i < signers.length; i++){\n            if(basicProposalDisapproved[index][signers[i]] == true){\n                disapproveCount++;\n            }\n        }\n        return disapproveCount > basicSignersRequired;\n    }\n    \n    //fallback payable function to receive ethers in contract\n    receive() external payable{}\n}",
  "sourcePath": "/Users/etherneel/Desktop/Condor/Eqnx/contracts/EquinoxMain.sol",
  "compiler": {
    "name": "solc",
    "version": "0.8.13+commit.abaa5c0e.Emscripten.clang"
  },
  "schemaVersion": "3.4.7",
  "updatedAt": "2022-09-22T05:58:51.005Z",
  "devdoc": {
    "kind": "dev",
    "methods": {},
    "version": 1
  },
  "userdoc": {
    "kind": "user",
    "methods": {},
    "version": 1
  }
}