{
  "contractName": "GToken",
  "abi": [
    {
      "inputs": [
        {
          "internalType": "string",
          "name": "_name",
          "type": "string"
        },
        {
          "internalType": "string",
          "name": "_symbol",
          "type": "string"
        },
        {
          "internalType": "uint256",
          "name": "_decimals",
          "type": "uint256"
        },
        {
          "internalType": "uint256",
          "name": "_totalSupply",
          "type": "uint256"
        },
        {
          "internalType": "address",
          "name": "_owner",
          "type": "address"
        },
        {
          "internalType": "contract MultiSigv2",
          "name": "multiSigAddress",
          "type": "address"
        }
      ],
      "stateMutability": "nonpayable",
      "type": "constructor"
    },
    {
      "anonymous": false,
      "inputs": [
        {
          "indexed": true,
          "internalType": "address",
          "name": "owner",
          "type": "address"
        },
        {
          "indexed": true,
          "internalType": "address",
          "name": "spender",
          "type": "address"
        },
        {
          "indexed": false,
          "internalType": "uint256",
          "name": "value",
          "type": "uint256"
        }
      ],
      "name": "Approval",
      "type": "event"
    },
    {
      "anonymous": false,
      "inputs": [
        {
          "indexed": true,
          "internalType": "address",
          "name": "from",
          "type": "address"
        },
        {
          "indexed": true,
          "internalType": "address",
          "name": "to",
          "type": "address"
        },
        {
          "indexed": false,
          "internalType": "uint256",
          "name": "value",
          "type": "uint256"
        }
      ],
      "name": "Transfer",
      "type": "event"
    },
    {
      "inputs": [
        {
          "internalType": "address",
          "name": "",
          "type": "address"
        },
        {
          "internalType": "address",
          "name": "",
          "type": "address"
        }
      ],
      "name": "allowance",
      "outputs": [
        {
          "internalType": "uint256",
          "name": "",
          "type": "uint256"
        }
      ],
      "stateMutability": "view",
      "type": "function"
    },
    {
      "inputs": [
        {
          "internalType": "address",
          "name": "",
          "type": "address"
        }
      ],
      "name": "balanceOf",
      "outputs": [
        {
          "internalType": "uint256",
          "name": "",
          "type": "uint256"
        }
      ],
      "stateMutability": "view",
      "type": "function"
    },
    {
      "inputs": [],
      "name": "decimals",
      "outputs": [
        {
          "internalType": "uint256",
          "name": "",
          "type": "uint256"
        }
      ],
      "stateMutability": "view",
      "type": "function"
    },
    {
      "inputs": [],
      "name": "name",
      "outputs": [
        {
          "internalType": "string",
          "name": "",
          "type": "string"
        }
      ],
      "stateMutability": "view",
      "type": "function"
    },
    {
      "inputs": [],
      "name": "owner",
      "outputs": [
        {
          "internalType": "address",
          "name": "",
          "type": "address"
        }
      ],
      "stateMutability": "view",
      "type": "function"
    },
    {
      "inputs": [],
      "name": "symbol",
      "outputs": [
        {
          "internalType": "string",
          "name": "",
          "type": "string"
        }
      ],
      "stateMutability": "view",
      "type": "function"
    },
    {
      "inputs": [],
      "name": "totalSupply",
      "outputs": [
        {
          "internalType": "uint256",
          "name": "",
          "type": "uint256"
        }
      ],
      "stateMutability": "view",
      "type": "function"
    },
    {
      "inputs": [],
      "name": "returnMultiSigAddress",
      "outputs": [
        {
          "internalType": "contract MultiSigv2",
          "name": "",
          "type": "address"
        }
      ],
      "stateMutability": "view",
      "type": "function"
    },
    {
      "inputs": [
        {
          "internalType": "contract MultiSigv2",
          "name": "multiSigAddress",
          "type": "address"
        }
      ],
      "name": "setMultiSigAddress",
      "outputs": [],
      "stateMutability": "nonpayable",
      "type": "function"
    },
    {
      "inputs": [
        {
          "internalType": "address",
          "name": "_to",
          "type": "address"
        },
        {
          "internalType": "uint256",
          "name": "_value",
          "type": "uint256"
        }
      ],
      "name": "transfer",
      "outputs": [
        {
          "internalType": "bool",
          "name": "success",
          "type": "bool"
        }
      ],
      "stateMutability": "nonpayable",
      "type": "function"
    },
    {
      "inputs": [
        {
          "internalType": "address",
          "name": "_spender",
          "type": "address"
        },
        {
          "internalType": "uint256",
          "name": "_value",
          "type": "uint256"
        }
      ],
      "name": "approve",
      "outputs": [
        {
          "internalType": "bool",
          "name": "",
          "type": "bool"
        }
      ],
      "stateMutability": "nonpayable",
      "type": "function"
    },
    {
      "inputs": [
        {
          "internalType": "address",
          "name": "_from",
          "type": "address"
        },
        {
          "internalType": "address",
          "name": "_to",
          "type": "address"
        },
        {
          "internalType": "uint256",
          "name": "_value",
          "type": "uint256"
        }
      ],
      "name": "transferFrom",
      "outputs": [
        {
          "internalType": "bool",
          "name": "",
          "type": "bool"
        }
      ],
      "stateMutability": "nonpayable",
      "type": "function"
    },
    {
      "inputs": [
        {
          "internalType": "address",
          "name": "account",
          "type": "address"
        },
        {
          "internalType": "uint256",
          "name": "amount",
          "type": "uint256"
        }
      ],
      "name": "mint",
      "outputs": [
        {
          "internalType": "bool",
          "name": "",
          "type": "bool"
        }
      ],
      "stateMutability": "nonpayable",
      "type": "function"
    }
  ],
  "bytecode": "0x60806040523480156200001157600080fd5b5060405162000b8438038062000b84833981016040819052620000349162000240565b855162000049906000906020890190620000e3565b5084516200005f906001906020880190620000e3565b5060028490556003839055600480546001600160a01b0319166001600160a01b0384811691909117825533600090815260056020908152604080832088905593549351878152939092169290917fddf252ad1be2c89b69c2b068fc378daa952ba7f163c4a11628f55a4df523b3ef910160405180910390a350505050505062000354565b828054620000f190620002e8565b90600052602060002090601f01602090048101928262000115576000855562000160565b82601f106200013057805160ff191683800117855562000160565b8280016001018555821562000160579182015b828111156200016057825182559160200191906001019062000143565b506200016e92915062000172565b5090565b5b808211156200016e576000815560010162000173565b600082601f8301126200019b57600080fd5b81516001600160401b0380821115620001b857620001b862000325565b604051601f8301601f19908116603f01168101908282118183101715620001e357620001e362000325565b816040528381526020925086838588010111156200020057600080fd5b600091505b8382101562000224578582018301518183018401529082019062000205565b83821115620002365760008385830101525b9695505050505050565b60008060008060008060c087890312156200025a57600080fd5b86516001600160401b03808211156200027257600080fd5b620002808a838b0162000189565b975060208901519150808211156200029757600080fd5b50620002a689828a0162000189565b95505060408701519350606087015192506080870151620002c7816200033b565b60a0880151909250620002da816200033b565b809150509295509295509295565b600181811c90821680620002fd57607f821691505b602082108114156200031f57634e487b7160e01b600052602260045260246000fd5b50919050565b634e487b7160e01b600052604160045260246000fd5b6001600160a01b03811681146200035157600080fd5b50565b61082080620003646000396000f3fe608060405234801561001057600080fd5b50600436106100cf5760003560e01c806340c10f191161008c57806395d89b411161006657806395d89b41146101d8578063a9059cbb146101e0578063dd62ed3e146101f3578063e44e63ac1461021e57600080fd5b806340c10f191461017a57806370a082311461018d5780638da5cb5b146101ad57600080fd5b806306fdde03146100d4578063077f2cfc146100f2578063095ea7b31461012457806318160ddd1461014757806323b872dd1461015e578063313ce56714610171575b600080fd5b6100dc61022f565b6040516100e991906106fd565b60405180910390f35b610122610100366004610633565b600780546001600160a01b0319166001600160a01b0392909216919091179055565b005b6101376101323660046106d1565b6102bd565b60405190151581526020016100e9565b61015060035481565b6040519081526020016100e9565b61013761016c366004610690565b610337565b61015060025481565b6101376101883660046106d1565b6103f4565b61015061019b366004610633565b60056020526000908152604090205481565b6004546101c0906001600160a01b031681565b6040516001600160a01b0390911681526020016100e9565b6100dc61052e565b6101376101ee3660046106d1565b61053b565b610150610201366004610657565b600660209081526000928352604080842090915290825290205481565b6007546001600160a01b03166101c0565b6000805461023c90610781565b80601f016020809104026020016040519081016040528092919081815260200182805461026890610781565b80156102b55780601f1061028a576101008083540402835291602001916102b5565b820191906000526020600020905b81548152906001019060200180831161029857829003601f168201915b505050505081565b60006001600160a01b0383166102d257600080fd5b3360008181526006602090815260408083206001600160a01b03881680855290835292819020869055518581529192917f8c5be1e5ebec7d5bd14f71427d1e84f3dd0314c0f7b2291e5b200ac8c7c3b92591015b60405180910390a350600192915050565b6001600160a01b03831660009081526005602052604081205482111561035c57600080fd5b6001600160a01b038416600090815260066020908152604080832033845290915290205482111561038c57600080fd5b6001600160a01b03841660009081526006602090815260408083203384529091529020546103bb90839061076a565b6001600160a01b03851660009081526006602090815260408083203384529091529020556103ea84848461056b565b5060019392505050565b6004546000906001600160a01b031633146104565760405162461bcd60e51b815260206004820152601d60248201527f796f752063616e6e6f742063616c6c20746869732066756e6374696f6e00000060448201526064015b60405180910390fd5b6001600160a01b0383166104ac5760405162461bcd60e51b815260206004820152601f60248201527f45524332303a206d696e7420746f20746865207a65726f206164647265737300604482015260640161044d565b81600360008282546104be9190610752565b90915550506001600160a01b038316600090815260056020526040812080548492906104eb908490610752565b90915550506040518281526001600160a01b038416906000907fddf252ad1be2c89b69c2b068fc378daa952ba7f163c4a11628f55a4df523b3ef90602001610326565b6001805461023c90610781565b3360009081526005602052604081205482111561055757600080fd5b61056233848461056b565b50600192915050565b6001600160a01b03821661057e57600080fd5b6001600160a01b0383166000908152600560205260409020546105a290829061076a565b6001600160a01b0380851660009081526005602052604080822093909355908416815220546105d2908290610752565b6001600160a01b0380841660008181526005602052604090819020939093559151908516907fddf252ad1be2c89b69c2b068fc378daa952ba7f163c4a11628f55a4df523b3ef906106269085815260200190565b60405180910390a3505050565b60006020828403121561064557600080fd5b8135610650816107d2565b9392505050565b6000806040838503121561066a57600080fd5b8235610675816107d2565b91506020830135610685816107d2565b809150509250929050565b6000806000606084860312156106a557600080fd5b83356106b0816107d2565b925060208401356106c0816107d2565b929592945050506040919091013590565b600080604083850312156106e457600080fd5b82356106ef816107d2565b946020939093013593505050565b600060208083528351808285015260005b8181101561072a5785810183015185820160400152820161070e565b8181111561073c576000604083870101525b50601f01601f1916929092016040019392505050565b60008219821115610765576107656107bc565b500190565b60008282101561077c5761077c6107bc565b500390565b600181811c9082168061079557607f821691505b602082108114156107b657634e487b7160e01b600052602260045260246000fd5b50919050565b634e487b7160e01b600052601160045260246000fd5b6001600160a01b03811681146107e757600080fd5b5056fea264697066735822122024ea1c61299acfe30a0fddf32681a00fb01c286ba3037081cccf0bc6496aaa4464736f6c63430008060033",
  "immutableReferences": {},
  "source": "//SPDX-License-Identifier: Unlicensed\npragma solidity ^0.8.6;\n\nimport \"./MultiSigv2.sol\";\n\n\ncontract GToken{\n\n    // My Variables\n    string public name;\n    string public symbol;\n    uint256 public decimals;\n    uint256 public totalSupply;\n    address public owner;\n\n    // Keep track balances and allowances approved\n    mapping(address => uint256) public balanceOf;\n    mapping(address => mapping(address => uint256)) public allowance;\n    \n     MultiSigv2 multiSignature;\n\n    // Events - fire events on state changes etc\n    event Transfer(address indexed from, address indexed to, uint256 value);\n    event Approval(address indexed owner, address indexed spender, uint256 value);\n\n    constructor(string memory _name, string memory _symbol, uint256 _decimals, uint256 _totalSupply, address _owner, MultiSigv2 multiSigAddress) \n    {\n        name = _name;\n        symbol = _symbol;\n        decimals = _decimals;\n        totalSupply = _totalSupply; \n        owner = _owner;\n        multiSigAddress = multiSigAddress;\n\n        balanceOf[msg.sender] = totalSupply;\n        emit Transfer(address(0), owner, totalSupply);\n        \n        // multiSignature = new MultiSigv2(initialSigners,_equinox, _amountNeeded,owner);\n    }\n\n\n    function returnMultiSigAddress() public view returns(MultiSigv2){\n         \n         return multiSignature;\n    }\n\n    function setMultiSigAddress(MultiSigv2 multiSigAddress) public {\n        multiSignature = multiSigAddress;\n    }\n     \n    /// @notice transfer amount of tokens to an address\n    /// @param _to receiver of token\n    /// @param _value amount value of token to send\n    /// @return success as true, for transfer \n    function transfer(address _to, uint256 _value) external returns (bool success) {\n        require(balanceOf[msg.sender] >= _value);\n        _transfer(msg.sender, _to, _value);\n        return true;\n    }\n\n    /// @dev internal helper transfer function with required safety checks\n    /// @param _from, where funds coming the sender\n    /// @param _to receiver of token\n    /// @param _value amount value of token to send\n    // Internal function transfer can only be called by this contract\n    //  Emit Transfer Event event \n    function _transfer(address _from, address _to, uint256 _value) internal {\n        // Ensure sending is to valid address! 0x0 address cane be used to burn() \n        require(_to != address(0));\n        balanceOf[_from] = balanceOf[_from] - (_value);\n        balanceOf[_to] = balanceOf[_to] + (_value);\n        emit Transfer(_from, _to, _value);\n    }\n\n    /// @notice Approve other to spend on your behalf eg an exchange \n    /// @param _spender allowed to spend and a max amount allowed to spend\n    /// @param _value amount value of token to send\n    /// @return true, success once address approved\n    //  Emit the Approval event  \n    // Allow _spender to spend up to _value on your behalf\n    function approve(address _spender, uint256 _value) external returns (bool) {\n        require(_spender != address(0));\n        allowance[msg.sender][_spender] = _value;\n        emit Approval(msg.sender, _spender, _value);\n        return true;\n    }\n\n    /// @notice transfer by approved person from original address of an amount within approved limit \n    /// @param _from, address sending to and the amount to send\n    /// @param _to receiver of token\n    /// @param _value amount value of token to send\n    /// @dev internal helper transfer function with required safety checks\n    /// @return true, success once transfered from original account    \n    // Allow _spender to spend up to _value on your behalf\n    function transferFrom(address _from, address _to, uint256 _value) external returns (bool) {\n        require(_value <= balanceOf[_from]);\n        require(_value <= allowance[_from][msg.sender]);\n        allowance[_from][msg.sender] = allowance[_from][msg.sender] - (_value);\n        _transfer(_from, _to, _value);\n        return true;\n    }\n    \n    \n    \n    function mint(address account, uint256 amount) public returns(bool) {\n        \n        require(msg.sender == owner,\"you cannot call this function\");\n        require(account != address(0), \"ERC20: mint to the zero address\");\n        \n        totalSupply += amount;\n        balanceOf[account] += amount;\n        emit Transfer(address(0), account, amount);\n        return true;\n\n    }\n\n}",
  "sourcePath": "/home/linux/Documents/equinoxapp-master/contracts/Gtoken.sol",
  "compiler": {
    "name": "solc",
    "version": "0.8.6+commit.11564f7e.Emscripten.clang"
  },
  "schemaVersion": "3.4.3",
  "updatedAt": "2022-01-17T20:10:10.465Z",
  "devdoc": {
    "kind": "dev",
    "methods": {
      "approve(address,uint256)": {
        "params": {
          "_spender": "allowed to spend and a max amount allowed to spend",
          "_value": "amount value of token to send"
        },
        "returns": {
          "_0": "true, success once address approved"
        }
      },
      "transfer(address,uint256)": {
        "params": {
          "_to": "receiver of token",
          "_value": "amount value of token to send"
        },
        "returns": {
          "success": "as true, for transfer "
        }
      },
      "transferFrom(address,address,uint256)": {
        "details": "internal helper transfer function with required safety checks",
        "params": {
          "_from": ", address sending to and the amount to send",
          "_to": "receiver of token",
          "_value": "amount value of token to send"
        },
        "returns": {
          "_0": "true, success once transfered from original account    "
        }
      }
    },
    "version": 1
  },
  "userdoc": {
    "kind": "user",
    "methods": {
      "approve(address,uint256)": {
        "notice": "Approve other to spend on your behalf eg an exchange "
      },
      "transfer(address,uint256)": {
        "notice": "transfer amount of tokens to an address"
      },
      "transferFrom(address,address,uint256)": {
        "notice": "transfer by approved person from original address of an amount within approved limit "
      }
    },
    "version": 1
  }
}