{
  "contractName": "subscriptionMain",
  "abi": [
    {
      "inputs": [
        {
          "internalType": "address",
          "name": "token_",
          "type": "address"
        },
        {
          "internalType": "address",
          "name": "multisig_",
          "type": "address"
        },
        {
          "internalType": "address",
          "name": "productOwner_",
          "type": "address"
        },
        {
          "internalType": "uint256",
          "name": "startTime_",
          "type": "uint256"
        },
        {
          "internalType": "uint256",
          "name": "endTime_",
          "type": "uint256"
        },
        {
          "internalType": "uint256",
          "name": "rate_",
          "type": "uint256"
        },
        {
          "internalType": "uint256",
          "name": "softCap_",
          "type": "uint256"
        },
        {
          "internalType": "uint256",
          "name": "hardCap_",
          "type": "uint256"
        },
        {
          "internalType": "address",
          "name": "router_",
          "type": "address"
        }
      ],
      "stateMutability": "nonpayable",
      "type": "constructor"
    },
    {
      "anonymous": false,
      "inputs": [
        {
          "indexed": true,
          "internalType": "address",
          "name": "wallet",
          "type": "address"
        },
        {
          "indexed": false,
          "internalType": "uint256",
          "name": "amount",
          "type": "uint256"
        }
      ],
      "name": "Claimed",
      "type": "event"
    },
    {
      "anonymous": false,
      "inputs": [
        {
          "indexed": true,
          "internalType": "address",
          "name": "wallet",
          "type": "address"
        },
        {
          "indexed": false,
          "internalType": "uint256",
          "name": "amount",
          "type": "uint256"
        }
      ],
      "name": "Deposited",
      "type": "event"
    },
    {
      "anonymous": false,
      "inputs": [
        {
          "indexed": false,
          "internalType": "address",
          "name": "owner",
          "type": "address"
        },
        {
          "indexed": false,
          "internalType": "uint256",
          "name": "amountToken",
          "type": "uint256"
        },
        {
          "indexed": false,
          "internalType": "uint256",
          "name": "bnbAmount",
          "type": "uint256"
        }
      ],
      "name": "LiquidityAdded",
      "type": "event"
    },
    {
      "anonymous": false,
      "inputs": [
        {
          "indexed": false,
          "internalType": "address",
          "name": "owner",
          "type": "address"
        }
      ],
      "name": "LiquidityRemoved",
      "type": "event"
    },
    {
      "anonymous": false,
      "inputs": [
        {
          "indexed": true,
          "internalType": "address",
          "name": "wallet",
          "type": "address"
        },
        {
          "indexed": true,
          "internalType": "address",
          "name": "account",
          "type": "address"
        },
        {
          "indexed": false,
          "internalType": "uint256",
          "name": "amount",
          "type": "uint256"
        },
        {
          "indexed": false,
          "internalType": "uint256",
          "name": "tokenAmount",
          "type": "uint256"
        }
      ],
      "name": "TokensPurchased",
      "type": "event"
    },
    {
      "inputs": [],
      "name": "_contractOwner",
      "outputs": [
        {
          "internalType": "address",
          "name": "",
          "type": "address"
        }
      ],
      "stateMutability": "view",
      "type": "function"
    },
    {
      "inputs": [
        {
          "internalType": "address",
          "name": "",
          "type": "address"
        }
      ],
      "name": "_contributions",
      "outputs": [
        {
          "internalType": "uint256",
          "name": "",
          "type": "uint256"
        }
      ],
      "stateMutability": "view",
      "type": "function"
    },
    {
      "inputs": [],
      "name": "_endTime",
      "outputs": [
        {
          "internalType": "uint256",
          "name": "",
          "type": "uint256"
        }
      ],
      "stateMutability": "view",
      "type": "function"
    },
    {
      "inputs": [],
      "name": "_hardCap",
      "outputs": [
        {
          "internalType": "uint256",
          "name": "",
          "type": "uint256"
        }
      ],
      "stateMutability": "view",
      "type": "function"
    },
    {
      "inputs": [],
      "name": "_maxBuy",
      "outputs": [
        {
          "internalType": "uint256",
          "name": "",
          "type": "uint256"
        }
      ],
      "stateMutability": "view",
      "type": "function"
    },
    {
      "inputs": [],
      "name": "_minBuy",
      "outputs": [
        {
          "internalType": "uint256",
          "name": "",
          "type": "uint256"
        }
      ],
      "stateMutability": "view",
      "type": "function"
    },
    {
      "inputs": [],
      "name": "_multisig",
      "outputs": [
        {
          "internalType": "address",
          "name": "",
          "type": "address"
        }
      ],
      "stateMutability": "view",
      "type": "function"
    },
    {
      "inputs": [],
      "name": "_rate",
      "outputs": [
        {
          "internalType": "uint256",
          "name": "",
          "type": "uint256"
        }
      ],
      "stateMutability": "view",
      "type": "function"
    },
    {
      "inputs": [],
      "name": "_softCap",
      "outputs": [
        {
          "internalType": "uint256",
          "name": "",
          "type": "uint256"
        }
      ],
      "stateMutability": "view",
      "type": "function"
    },
    {
      "inputs": [],
      "name": "_soldTokens",
      "outputs": [
        {
          "internalType": "uint256",
          "name": "",
          "type": "uint256"
        }
      ],
      "stateMutability": "view",
      "type": "function"
    },
    {
      "inputs": [],
      "name": "_startTime",
      "outputs": [
        {
          "internalType": "uint256",
          "name": "",
          "type": "uint256"
        }
      ],
      "stateMutability": "view",
      "type": "function"
    },
    {
      "inputs": [],
      "name": "_token",
      "outputs": [
        {
          "internalType": "contract IERC20",
          "name": "",
          "type": "address"
        }
      ],
      "stateMutability": "view",
      "type": "function"
    },
    {
      "inputs": [],
      "name": "_wallet",
      "outputs": [
        {
          "internalType": "address",
          "name": "",
          "type": "address"
        }
      ],
      "stateMutability": "view",
      "type": "function"
    },
    {
      "inputs": [],
      "name": "_weiRaised",
      "outputs": [
        {
          "internalType": "uint256",
          "name": "",
          "type": "uint256"
        }
      ],
      "stateMutability": "view",
      "type": "function"
    },
    {
      "inputs": [],
      "name": "bnbLockTime",
      "outputs": [
        {
          "internalType": "uint256",
          "name": "",
          "type": "uint256"
        }
      ],
      "stateMutability": "view",
      "type": "function"
    },
    {
      "inputs": [],
      "name": "fundsLockTime",
      "outputs": [
        {
          "internalType": "uint256",
          "name": "",
          "type": "uint256"
        }
      ],
      "stateMutability": "view",
      "type": "function"
    },
    {
      "inputs": [],
      "name": "liquidityLockTime",
      "outputs": [
        {
          "internalType": "uint256",
          "name": "",
          "type": "uint256"
        }
      ],
      "stateMutability": "view",
      "type": "function"
    },
    {
      "inputs": [],
      "name": "pair",
      "outputs": [
        {
          "internalType": "address",
          "name": "",
          "type": "address"
        }
      ],
      "stateMutability": "view",
      "type": "function"
    },
    {
      "inputs": [],
      "name": "presaleClosed",
      "outputs": [
        {
          "internalType": "bool",
          "name": "",
          "type": "bool"
        }
      ],
      "stateMutability": "view",
      "type": "function"
    },
    {
      "inputs": [],
      "name": "router",
      "outputs": [
        {
          "internalType": "contract IUniswapV2Router02",
          "name": "",
          "type": "address"
        }
      ],
      "stateMutability": "view",
      "type": "function"
    },
    {
      "stateMutability": "payable",
      "type": "receive"
    },
    {
      "inputs": [],
      "name": "token",
      "outputs": [
        {
          "internalType": "contract IERC20",
          "name": "",
          "type": "address"
        }
      ],
      "stateMutability": "view",
      "type": "function"
    },
    {
      "inputs": [],
      "name": "wallet",
      "outputs": [
        {
          "internalType": "address",
          "name": "",
          "type": "address"
        }
      ],
      "stateMutability": "view",
      "type": "function"
    },
    {
      "inputs": [],
      "name": "contractOwner",
      "outputs": [
        {
          "internalType": "address",
          "name": "",
          "type": "address"
        }
      ],
      "stateMutability": "view",
      "type": "function"
    },
    {
      "inputs": [],
      "name": "rate",
      "outputs": [
        {
          "internalType": "uint256",
          "name": "",
          "type": "uint256"
        }
      ],
      "stateMutability": "view",
      "type": "function"
    },
    {
      "inputs": [],
      "name": "multisigAddress",
      "outputs": [
        {
          "internalType": "address",
          "name": "",
          "type": "address"
        }
      ],
      "stateMutability": "view",
      "type": "function"
    },
    {
      "inputs": [],
      "name": "weiRaised",
      "outputs": [
        {
          "internalType": "uint256",
          "name": "",
          "type": "uint256"
        }
      ],
      "stateMutability": "view",
      "type": "function"
    },
    {
      "inputs": [
        {
          "internalType": "address",
          "name": "beneficiary",
          "type": "address"
        }
      ],
      "name": "buyTokens",
      "outputs": [],
      "stateMutability": "payable",
      "type": "function"
    },
    {
      "inputs": [],
      "name": "end",
      "outputs": [],
      "stateMutability": "nonpayable",
      "type": "function"
    },
    {
      "inputs": [],
      "name": "withdrawLockedFundsIfICOFailed",
      "outputs": [],
      "stateMutability": "nonpayable",
      "type": "function"
    },
    {
      "inputs": [],
      "name": "withdrawLockedFunds",
      "outputs": [],
      "stateMutability": "nonpayable",
      "type": "function"
    },
    {
      "inputs": [],
      "name": "withdrawETH",
      "outputs": [],
      "stateMutability": "nonpayable",
      "type": "function"
    },
    {
      "inputs": [],
      "name": "claim",
      "outputs": [],
      "stateMutability": "nonpayable",
      "type": "function"
    }
  ],
  "bytecode": "0x60806040523480156200001157600080fd5b50604051620034943803806200349483398181016040528101906200003791906200071a565b6001600081905550600073ffffffffffffffffffffffffffffffffffffffff168973ffffffffffffffffffffffffffffffffffffffff1603620000b1576040517f08c379a0000000000000000000000000000000000000000000000000000000008152600401620000a89062000880565b60405180910390fd5b88600160006101000a81548173ffffffffffffffffffffffffffffffffffffffff021916908373ffffffffffffffffffffffffffffffffffffffff160217905550856007819055508460088190555086600360006101000a81548173ffffffffffffffffffffffffffffffffffffffff021916908373ffffffffffffffffffffffffffffffffffffffff160217905550620001516200066d60201b60201c565b600460006101000a81548173ffffffffffffffffffffffffffffffffffffffff021916908373ffffffffffffffffffffffffffffffffffffffff16021790555087600260006101000a81548173ffffffffffffffffffffffffffffffffffffffff021916908373ffffffffffffffffffffffffffffffffffffffff160217905550670de0b6b3a7640000600184620001ea9190620008d1565b620001f69190620008d1565b600b81905550670de0b6b3a7640000600183620002149190620008d1565b620002209190620008d1565b600c8190555083600681905550600081905060008173ffffffffffffffffffffffffffffffffffffffff1663c45a01556040518163ffffffff1660e01b8152600401602060405180830381865afa15801562000280573d6000803e3d6000fd5b505050506040513d601f19601f82011682018060405250810190620002a6919062000932565b90508073ffffffffffffffffffffffffffffffffffffffff1663e6a43905600160009054906101000a900473ffffffffffffffffffffffffffffffffffffffff168473ffffffffffffffffffffffffffffffffffffffff1663ad5c46486040518163ffffffff1660e01b8152600401602060405180830381865afa15801562000333573d6000803e3d6000fd5b505050506040513d601f19601f8201168201806040525081019062000359919062000932565b6040518363ffffffff1660e01b81526004016200037892919062000975565b602060405180830381865afa15801562000396573d6000803e3d6000fd5b505050506040513d601f19601f82011682018060405250810190620003bc919062000932565b600f60006101000a81548173ffffffffffffffffffffffffffffffffffffffff021916908373ffffffffffffffffffffffffffffffffffffffff160217905550600073ffffffffffffffffffffffffffffffffffffffff16600f60009054906101000a900473ffffffffffffffffffffffffffffffffffffffff1673ffffffffffffffffffffffffffffffffffffffff16036200061b578173ffffffffffffffffffffffffffffffffffffffff1663c45a01556040518163ffffffff1660e01b8152600401602060405180830381865afa1580156200049f573d6000803e3d6000fd5b505050506040513d601f19601f82011682018060405250810190620004c5919062000932565b73ffffffffffffffffffffffffffffffffffffffff1663c9c65396600160009054906101000a900473ffffffffffffffffffffffffffffffffffffffff168473ffffffffffffffffffffffffffffffffffffffff1663ad5c46486040518163ffffffff1660e01b8152600401602060405180830381865afa1580156200054f573d6000803e3d6000fd5b505050506040513d601f19601f8201168201806040525081019062000575919062000932565b6040518363ffffffff1660e01b81526004016200059492919062000975565b6020604051808303816000875af1158015620005b4573d6000803e3d6000fd5b505050506040513d601f19601f82011682018060405250810190620005da919062000932565b600f60006101000a81548173ffffffffffffffffffffffffffffffffffffffff021916908373ffffffffffffffffffffffffffffffffffffffff1602179055505b81600e60006101000a81548173ffffffffffffffffffffffffffffffffffffffff021916908373ffffffffffffffffffffffffffffffffffffffff1602179055505050505050505050505050620009a2565b600033905090565b600080fd5b600073ffffffffffffffffffffffffffffffffffffffff82169050919050565b6000620006a7826200067a565b9050919050565b620006b9816200069a565b8114620006c557600080fd5b50565b600081519050620006d981620006ae565b92915050565b6000819050919050565b620006f481620006df565b81146200070057600080fd5b50565b6000815190506200071481620006e9565b92915050565b60008060008060008060008060006101208a8c03121562000740576200073f62000675565b5b6000620007508c828d01620006c8565b9950506020620007638c828d01620006c8565b9850506040620007768c828d01620006c8565b9750506060620007898c828d0162000703565b96505060806200079c8c828d0162000703565b95505060a0620007af8c828d0162000703565b94505060c0620007c28c828d0162000703565b93505060e0620007d58c828d0162000703565b925050610100620007e98c828d01620006c8565b9150509295985092959850929598565b600082825260208201905092915050565b7f43726f776473616c653a20746f6b656e20697320746865207a65726f2061646460008201527f7265737300000000000000000000000000000000000000000000000000000000602082015250565b600062000868602483620007f9565b915062000875826200080a565b604082019050919050565b600060208201905081810360008301526200089b8162000859565b9050919050565b7f4e487b7100000000000000000000000000000000000000000000000000000000600052601160045260246000fd5b6000620008de82620006df565b9150620008eb83620006df565b9250817fffffffffffffffffffffffffffffffffffffffffffffffffffffffffffffffff0483118215151615620009275762000926620008a2565b5b828202905092915050565b6000602082840312156200094b576200094a62000675565b5b60006200095b84828501620006c8565b91505092915050565b6200096f816200069a565b82525050565b60006040820190506200098c600083018562000964565b6200099b602083018462000964565b9392505050565b612ae280620009b26000396000f3fe6080604052600436106101e75760003560e01c80638fd40d3211610102578063e086e5ec11610095578063efbe1c1c11610064578063efbe1c1c1461066a578063f887ea4014610681578063fa1acb5c146106ac578063fc0c546a146106d7576101fe565b8063e086e5ec146105e1578063e6232852146105f8578063ec8ac4d814610623578063ecd0c0c31461063f576101fe565b8063abd2cc5f116100d1578063abd2cc5f14610549578063b07d5bf014610574578063ce606ee01461059f578063da6de731146105ca576101fe565b80638fd40d321461049d57806394a5aa8d146104c8578063a8aa1b31146104f3578063a9dec4361461051e576101fe565b80634d30f1801161017a578063610757e411610149578063610757e4146103f15780636a13e05f1461041c578063806f5fc01461044757806383bebced14610472576101fe565b80634d30f180146103595780634e71d92d14610384578063521eb2731461039b5780635462870d146103c6576101fe565b80634042b66f116101b65780634042b66f146102ad57806340d48958146102d857806346fd37821461030357806348de0f401461032e576101fe565b80630f7624ae146102035780631e6a610d1461021a5780632bb3b114146102575780632c4e722e14610282576101fe565b366101fe576101fc6101f7610702565b61070a565b005b600080fd5b34801561020f57600080fd5b50610218610a61565b005b34801561022657600080fd5b50610241600480360381019061023c9190611df9565b610d30565b60405161024e9190611e3f565b60405180910390f35b34801561026357600080fd5b5061026c610d48565b6040516102799190611e69565b60405180910390f35b34801561028e57600080fd5b50610297610d6e565b6040516102a49190611e3f565b60405180910390f35b3480156102b957600080fd5b506102c2610d78565b6040516102cf9190611e3f565b60405180910390f35b3480156102e457600080fd5b506102ed610d82565b6040516102fa9190611e3f565b60405180910390f35b34801561030f57600080fd5b50610318610d88565b6040516103259190611e3f565b60405180910390f35b34801561033a57600080fd5b50610343610d8e565b6040516103509190611e3f565b60405180910390f35b34801561036557600080fd5b5061036e610d94565b60405161037b9190611e3f565b60405180910390f35b34801561039057600080fd5b50610399610d9a565b005b3480156103a757600080fd5b506103b0610f91565b6040516103bd9190611e69565b60405180910390f35b3480156103d257600080fd5b506103db610fbb565b6040516103e89190611e69565b60405180910390f35b3480156103fd57600080fd5b50610406610fe5565b6040516104139190611e69565b60405180910390f35b34801561042857600080fd5b5061043161100b565b60405161043e9190611e3f565b60405180910390f35b34801561045357600080fd5b5061045c611011565b6040516104699190611e3f565b60405180910390f35b34801561047e57600080fd5b50610487611017565b6040516104949190611e3f565b60405180910390f35b3480156104a957600080fd5b506104b261101d565b6040516104bf9190611e69565b60405180910390f35b3480156104d457600080fd5b506104dd611043565b6040516104ea9190611e3f565b60405180910390f35b3480156104ff57600080fd5b50610508611049565b6040516105159190611e69565b60405180910390f35b34801561052a57600080fd5b5061053361106f565b6040516105409190611e3f565b60405180910390f35b34801561055557600080fd5b5061055e611075565b60405161056b9190611e9f565b60405180910390f35b34801561058057600080fd5b50610589611088565b6040516105969190611e3f565b60405180910390f35b3480156105ab57600080fd5b506105b461108e565b6040516105c19190611e69565b60405180910390f35b3480156105d657600080fd5b506105df6110b8565b005b3480156105ed57600080fd5b506105f661133a565b005b34801561060457600080fd5b5061060d6114a1565b60405161061a9190611e3f565b60405180910390f35b61063d60048036038101906106389190611df9565b61070a565b005b34801561064b57600080fd5b506106546114a7565b6040516106619190611f19565b60405180910390f35b34801561067657600080fd5b5061067f6114cd565b005b34801561068d57600080fd5b506106966117f4565b6040516106a39190611f55565b60405180910390f35b3480156106b857600080fd5b506106c161181a565b6040516106ce9190611e3f565b60405180910390f35b3480156106e357600080fd5b506106ec611820565b6040516106f99190611f19565b60405180910390f35b600033905090565b60026000540361074f576040517f08c379a000000000000000000000000000000000000000000000000000000000815260040161074690611fcd565b60405180910390fd5b600260008190555060075442101561079c576040517f08c379a000000000000000000000000000000000000000000000000000000000815260040161079390612013565b60405180910390fd5b6008544211156107e1576040517f08c379a00000000000000000000000000000000000000000000000000000000081526004016107d890612013565b60405180910390fd5b600754421015610826576040517f08c379a000000000000000000000000000000000000000000000000000000000815260040161081d9061207f565b60405180910390fd5b60085442111561086b576040517f08c379a0000000000000000000000000000000000000000000000000000000008152600401610862906120eb565b60405180910390fd5b6000349050600061089a6103e861088c60208561184a90919063ffffffff16565b6118c490919063ffffffff16565b905060006108b1828461190e90919063ffffffff16565b9050600083116108f6576040517f08c379a00000000000000000000000000000000000000000000000000000000081526004016108ed90612157565b60405180910390fd5b6109008482611958565b61090a8482611a0e565b80601460008673ffffffffffffffffffffffffffffffffffffffff1673ffffffffffffffffffffffffffffffffffffffff168152602001908152602001600020600082825461095991906121a6565b92505081905550600360009054906101000a900473ffffffffffffffffffffffffffffffffffffffff1673ffffffffffffffffffffffffffffffffffffffff166108fc839081150290604051600060405180830381858888f193505050501580156109c8573d6000803e3d6000fd5b508373ffffffffffffffffffffffffffffffffffffffff167f2da466a7b24304f47e87fa2e1e5a81b9831ce54fec19055ce277ca2f39ba42c482604051610a0f9190611e3f565b60405180910390a28060056000828254610a2991906121a6565b92505081905550610a4d610a3c82611b5b565b600d54611b7990919063ffffffff16565b600d81905550505050600160008190555050565b600854421015610aa6576040517f08c379a0000000000000000000000000000000000000000000000000000000008152600401610a9d90612248565b60405180910390fd5b610aae610702565b73ffffffffffffffffffffffffffffffffffffffff16600460009054906101000a900473ffffffffffffffffffffffffffffffffffffffff1673ffffffffffffffffffffffffffffffffffffffff1614610b3d576040517f08c379a0000000000000000000000000000000000000000000000000000000008152600401610b34906122da565b60405180910390fd5b601360009054906101000a900460ff16610b8c576040517f08c379a0000000000000000000000000000000000000000000000000000000008152600401610b8390612346565b60405180910390fd5b4260125410610bd0576040517f08c379a0000000000000000000000000000000000000000000000000000000008152600401610bc7906123b2565b60405180910390fd5b600160009054906101000a900473ffffffffffffffffffffffffffffffffffffffff1673ffffffffffffffffffffffffffffffffffffffff1663a9059cbb600260009054906101000a900473ffffffffffffffffffffffffffffffffffffffff16600160009054906101000a900473ffffffffffffffffffffffffffffffffffffffff1673ffffffffffffffffffffffffffffffffffffffff166370a08231306040518263ffffffff1660e01b8152600401610c8c9190611e69565b602060405180830381865afa158015610ca9573d6000803e3d6000fd5b505050506040513d601f19601f82011682018060405250810190610ccd91906123fe565b6040518363ffffffff1660e01b8152600401610cea92919061242b565b6020604051808303816000875af1158015610d09573d6000803e3d6000fd5b505050506040513d601f19601f82011682018060405250810190610d2d9190612480565b50565b60146020528060005260406000206000915090505481565b600460009054906101000a900473ffffffffffffffffffffffffffffffffffffffff1681565b6000600654905090565b6000600554905090565b60085481565b60125481565b60115481565b60105481565b600854421015610ddf576040517f08c379a0000000000000000000000000000000000000000000000000000000008152600401610dd690612248565b60405180910390fd5b600b546005541015610e26576040517f08c379a0000000000000000000000000000000000000000000000000000000008152600401610e1d906124f9565b60405180910390fd5b6000610e30610702565b90506000601460008373ffffffffffffffffffffffffffffffffffffffff1673ffffffffffffffffffffffffffffffffffffffff16815260200190815260200160002054905060008111610eb9576040517f08c379a0000000000000000000000000000000000000000000000000000000008152600401610eb090612565565b60405180910390fd5b6000610ec482611b5b565b90508273ffffffffffffffffffffffffffffffffffffffff16610ee5610702565b73ffffffffffffffffffffffffffffffffffffffff167f6faf93231a456e552dbc9961f58d9713ee4f2e69d15f1975b050ef0911053a7b8484604051610f2c929190612585565b60405180910390a3610f3e8382611bd7565b8273ffffffffffffffffffffffffffffffffffffffff167fd8138f8a3f377c5259ca548e70e4c2de94f129f5a11036a15b69513cba2b426a82604051610f849190611e3f565b60405180910390a2505050565b6000600360009054906101000a900473ffffffffffffffffffffffffffffffffffffffff16905090565b6000600260009054906101000a900473ffffffffffffffffffffffffffffffffffffffff16905090565b600360009054906101000a900473ffffffffffffffffffffffffffffffffffffffff1681565b600d5481565b600c5481565b60065481565b600260009054906101000a900473ffffffffffffffffffffffffffffffffffffffff1681565b60055481565b600f60009054906101000a900473ffffffffffffffffffffffffffffffffffffffff1681565b600a5481565b601360009054906101000a900460ff1681565b60095481565b6000600460009054906101000a900473ffffffffffffffffffffffffffffffffffffffff16905090565b6008544210156110fd576040517f08c379a00000000000000000000000000000000000000000000000000000000081526004016110f490612248565b60405180910390fd5b600b5460055410611143576040517f08c379a000000000000000000000000000000000000000000000000000000000815260040161113a906125fa565b60405180910390fd5b61114b610702565b73ffffffffffffffffffffffffffffffffffffffff16600460009054906101000a900473ffffffffffffffffffffffffffffffffffffffff1673ffffffffffffffffffffffffffffffffffffffff16146111da576040517f08c379a00000000000000000000000000000000000000000000000000000000081526004016111d1906122da565b60405180910390fd5b600160009054906101000a900473ffffffffffffffffffffffffffffffffffffffff1673ffffffffffffffffffffffffffffffffffffffff1663a9059cbb600260009054906101000a900473ffffffffffffffffffffffffffffffffffffffff16600160009054906101000a900473ffffffffffffffffffffffffffffffffffffffff1673ffffffffffffffffffffffffffffffffffffffff166370a08231306040518263ffffffff1660e01b81526004016112969190611e69565b602060405180830381865afa1580156112b3573d6000803e3d6000fd5b505050506040513d601f19601f820116820180604052508101906112d791906123fe565b6040518363ffffffff1660e01b81526004016112f492919061242b565b6020604051808303816000875af1158015611313573d6000803e3d6000fd5b505050506040513d601f19601f820116820180604052508101906113379190612480565b50565b600060146000611348610702565b73ffffffffffffffffffffffffffffffffffffffff1673ffffffffffffffffffffffffffffffffffffffff168152602001908152602001600020549050600081116113c8576040517f08c379a00000000000000000000000000000000000000000000000000000000081526004016113bf90612666565b60405180910390fd5b6000601460006113d6610702565b73ffffffffffffffffffffffffffffffffffffffff1673ffffffffffffffffffffffffffffffffffffffff1681526020019081526020016000208190555080600560008282546114269190612686565b92505081905550611435610702565b73ffffffffffffffffffffffffffffffffffffffff166108fc829081150290604051600060405180830381858888f1935050505015801561147a573d6000803e3d6000fd5b5061149861148782611b5b565b600d5461190e90919063ffffffff16565b600d8190555050565b600b5481565b600160009054906101000a900473ffffffffffffffffffffffffffffffffffffffff1681565b600854421015611512576040517f08c379a000000000000000000000000000000000000000000000000000000000815260040161150990612248565b60405180910390fd5b600b546005541015611559576040517f08c379a0000000000000000000000000000000000000000000000000000000008152600401611550906124f9565b60405180910390fd5b611561610702565b73ffffffffffffffffffffffffffffffffffffffff16600460009054906101000a900473ffffffffffffffffffffffffffffffffffffffff1673ffffffffffffffffffffffffffffffffffffffff16146115f0576040517f08c379a00000000000000000000000000000000000000000000000000000000081526004016115e7906122da565b60405180910390fd5b60006116a2600d54600160009054906101000a900473ffffffffffffffffffffffffffffffffffffffff1673ffffffffffffffffffffffffffffffffffffffff166370a08231306040518263ffffffff1660e01b81526004016116539190611e69565b602060405180830381865afa158015611670573d6000803e3d6000fd5b505050506040513d601f19601f8201168201806040525081019061169491906123fe565b61190e90919063ffffffff16565b9050600160009054906101000a900473ffffffffffffffffffffffffffffffffffffffff1673ffffffffffffffffffffffffffffffffffffffff1663a9059cbb600260009054906101000a900473ffffffffffffffffffffffffffffffffffffffff16836040518363ffffffff1660e01b815260040161172392919061242b565b6020604051808303816000875af1158015611742573d6000803e3d6000fd5b505050506040513d601f19601f820116820180604052508101906117669190612480565b506000479050600260009054906101000a900473ffffffffffffffffffffffffffffffffffffffff1673ffffffffffffffffffffffffffffffffffffffff166108fc829081150290604051600060405180830381858888f193505050501580156117d4573d6000803e3d6000fd5b506001601360006101000a81548160ff0219169083151502179055505050565b600e60009054906101000a900473ffffffffffffffffffffffffffffffffffffffff1681565b60075481565b6000600160009054906101000a900473ffffffffffffffffffffffffffffffffffffffff16905090565b600080830361185c57600090506118be565b6000828461186a91906126ba565b90508284826118799190612743565b146118b9576040517f08c379a00000000000000000000000000000000000000000000000000000000081526004016118b0906127e6565b60405180910390fd5b809150505b92915050565b600061190683836040518060400160405280601a81526020017f536166654d6174683a206469766973696f6e206279207a65726f000000000000815250611c2a565b905092915050565b600061195083836040518060400160405280601e81526020017f536166654d6174683a207375627472616374696f6e206f766572666c6f770000815250611c8d565b905092915050565b600073ffffffffffffffffffffffffffffffffffffffff168273ffffffffffffffffffffffffffffffffffffffff16036119c7576040517f08c379a00000000000000000000000000000000000000000000000000000000081526004016119be90612878565b60405180910390fd5b60008103611a0a576040517f08c379a0000000000000000000000000000000000000000000000000000000008152600401611a01906128e4565b60405180910390fd5b5050565b601460008373ffffffffffffffffffffffffffffffffffffffff1673ffffffffffffffffffffffffffffffffffffffff1681526020019081526020016000205481611a5991906121a6565b90506000611a6682611b5b565b9050600160009054906101000a900473ffffffffffffffffffffffffffffffffffffffff1673ffffffffffffffffffffffffffffffffffffffff166370a08231846040518263ffffffff1660e01b8152600401611ac39190611e69565b602060405180830381865afa158015611ae0573d6000803e3d6000fd5b505050506040513d601f19601f82011682018060405250810190611b0491906123fe565b81611b0f91906121a6565b9050600954811015611b56576040517f08c379a0000000000000000000000000000000000000000000000000000000008152600401611b4d90612976565b60405180910390fd5b505050565b6000611b726006548361184a90919063ffffffff16565b9050919050565b6000808284611b8891906121a6565b905083811015611bcd576040517f08c379a0000000000000000000000000000000000000000000000000000000008152600401611bc4906129e2565b60405180910390fd5b8091505092915050565b6000601460008473ffffffffffffffffffffffffffffffffffffffff1673ffffffffffffffffffffffffffffffffffffffff16815260200190815260200160002081905550611c268282611cf1565b5050565b60008083118290611c71576040517f08c379a0000000000000000000000000000000000000000000000000000000008152600401611c689190612a8a565b60405180910390fd5b5060008385611c809190612743565b9050809150509392505050565b6000838311158290611cd5576040517f08c379a0000000000000000000000000000000000000000000000000000000008152600401611ccc9190612a8a565b60405180910390fd5b5060008385611ce49190612686565b9050809150509392505050565b600160009054906101000a900473ffffffffffffffffffffffffffffffffffffffff1673ffffffffffffffffffffffffffffffffffffffff1663a9059cbb83836040518363ffffffff1660e01b8152600401611d4e92919061242b565b6020604051808303816000875af1158015611d6d573d6000803e3d6000fd5b505050506040513d601f19601f82011682018060405250810190611d919190612480565b505050565b600080fd5b600073ffffffffffffffffffffffffffffffffffffffff82169050919050565b6000611dc682611d9b565b9050919050565b611dd681611dbb565b8114611de157600080fd5b50565b600081359050611df381611dcd565b92915050565b600060208284031215611e0f57611e0e611d96565b5b6000611e1d84828501611de4565b91505092915050565b6000819050919050565b611e3981611e26565b82525050565b6000602082019050611e546000830184611e30565b92915050565b611e6381611dbb565b82525050565b6000602082019050611e7e6000830184611e5a565b92915050565b60008115159050919050565b611e9981611e84565b82525050565b6000602082019050611eb46000830184611e90565b92915050565b6000819050919050565b6000611edf611eda611ed584611d9b565b611eba565b611d9b565b9050919050565b6000611ef182611ec4565b9050919050565b6000611f0382611ee6565b9050919050565b611f1381611ef8565b82525050565b6000602082019050611f2e6000830184611f0a565b92915050565b6000611f3f82611ee6565b9050919050565b611f4f81611f34565b82525050565b6000602082019050611f6a6000830184611f46565b92915050565b600082825260208201905092915050565b7f5265656e7472616e637947756172643a207265656e7472616e742063616c6c00600082015250565b6000611fb7601f83611f70565b9150611fc282611f81565b602082019050919050565b60006020820190508181036000830152611fe681611faa565b9050919050565b50565b6000611ffd600083611f70565b915061200882611fed565b600082019050919050565b6000602082019050818103600083015261202c81611ff0565b9050919050565b7f50726573616c6520686173206e6f742073746172746564207965742e00000000600082015250565b6000612069601c83611f70565b915061207482612033565b602082019050919050565b600060208201905081810360008301526120988161205c565b9050919050565b7f50726573616c652068617320616c726561647920656e6465642e000000000000600082015250565b60006120d5601a83611f70565b91506120e08261209f565b602082019050919050565b60006020820190508181036000830152612104816120c8565b9050919050565b7f416d6f756e742073686f756c642062652067726561746572207468656e20302e600082015250565b6000612141602083611f70565b915061214c8261210b565b602082019050919050565b6000602082019050818103600083015261217081612134565b9050919050565b7f4e487b7100000000000000000000000000000000000000000000000000000000600052601160045260246000fd5b60006121b182611e26565b91506121bc83611e26565b9250827fffffffffffffffffffffffffffffffffffffffffffffffffffffffffffffffff038211156121f1576121f0612177565b5b828201905092915050565b7f50726573616c65206973207374696c6c206f70656e0000000000000000000000600082015250565b6000612232601583611f70565b915061223d826121fc565b602082019050919050565b6000602082019050818103600083015261226181612225565b9050919050565b7f46756e6374696f6e2063616c6c65642066726f6d206e6f6e2061646d696e207760008201527f616c6c65742e0000000000000000000000000000000000000000000000000000602082015250565b60006122c4602683611f70565b91506122cf82612268565b604082019050919050565b600060208201905081810360008301526122f3816122b7565b9050919050565b7f50726573616c65206e6f7420636c6f7365642079657400000000000000000000600082015250565b6000612330601683611f70565b915061233b826122fa565b602082019050919050565b6000602082019050818103600083015261235f81612323565b9050919050565b7f5374696c6c206c6f636b65642e00000000000000000000000000000000000000600082015250565b600061239c600d83611f70565b91506123a782612366565b602082019050919050565b600060208201905081810360008301526123cb8161238f565b9050919050565b6123db81611e26565b81146123e657600080fd5b50565b6000815190506123f8816123d2565b92915050565b60006020828403121561241457612413611d96565b5b6000612422848285016123e9565b91505092915050565b60006040820190506124406000830185611e5a565b61244d6020830184611e30565b9392505050565b61245d81611e84565b811461246857600080fd5b50565b60008151905061247a81612454565b92915050565b60006020828403121561249657612495611d96565b5b60006124a48482850161246b565b91505092915050565b7f536f667420636170206e6f742072656163686564000000000000000000000000600082015250565b60006124e3601483611f70565b91506124ee826124ad565b602082019050919050565b60006020820190508181036000830152612512816124d6565b9050919050565b7f57616c6c657420686173206e6f20636f6e747269627574696f6e2e0000000000600082015250565b600061254f601b83611f70565b915061255a82612519565b602082019050919050565b6000602082019050818103600083015261257e81612542565b9050919050565b600060408201905061259a6000830185611e30565b6125a76020830184611e30565b9392505050565b7f536f667420636170207265616368656400000000000000000000000000000000600082015250565b60006125e4601083611f70565b91506125ef826125ae565b602082019050919050565b60006020820190508181036000830152612613816125d7565b9050919050565b7f57616c6c65742068617665206e6f20636f6e747269627574696f6e2e00000000600082015250565b6000612650601c83611f70565b915061265b8261261a565b602082019050919050565b6000602082019050818103600083015261267f81612643565b9050919050565b600061269182611e26565b915061269c83611e26565b9250828210156126af576126ae612177565b5b828203905092915050565b60006126c582611e26565b91506126d083611e26565b9250817fffffffffffffffffffffffffffffffffffffffffffffffffffffffffffffffff048311821515161561270957612708612177565b5b828202905092915050565b7f4e487b7100000000000000000000000000000000000000000000000000000000600052601260045260246000fd5b600061274e82611e26565b915061275983611e26565b92508261276957612768612714565b5b828204905092915050565b7f536166654d6174683a206d756c7469706c69636174696f6e206f766572666c6f60008201527f7700000000000000000000000000000000000000000000000000000000000000602082015250565b60006127d0602183611f70565b91506127db82612774565b604082019050919050565b600060208201905081810360008301526127ff816127c3565b9050919050565b7f43726f776473616c653a2062656e656669636961727920697320746865207a6560008201527f726f206164647265737300000000000000000000000000000000000000000000602082015250565b6000612862602a83611f70565b915061286d82612806565b604082019050919050565b6000602082019050818103600083015261289181612855565b9050919050565b7f43726f776473616c653a20776569416d6f756e74206973203000000000000000600082015250565b60006128ce601983611f70565b91506128d982612898565b602082019050919050565b600060208201905081810360008301526128fd816128c1565b9050919050565b7f43616e206e6f74206265206c657373207468616e206d696e696d756d2062757960008201527f2e00000000000000000000000000000000000000000000000000000000000000602082015250565b6000612960602183611f70565b915061296b82612904565b604082019050919050565b6000602082019050818103600083015261298f81612953565b9050919050565b7f536166654d6174683a206164646974696f6e206f766572666c6f770000000000600082015250565b60006129cc601b83611f70565b91506129d782612996565b602082019050919050565b600060208201905081810360008301526129fb816129bf565b9050919050565b600081519050919050565b60005b83811015612a2b578082015181840152602081019050612a10565b83811115612a3a576000848401525b50505050565b6000601f19601f8301169050919050565b6000612a5c82612a02565b612a668185611f70565b9350612a76818560208601612a0d565b612a7f81612a40565b840191505092915050565b60006020820190508181036000830152612aa48184612a51565b90509291505056fea26469706673582212202ac54721d5316d0bace5753f97ab4b26fd3c897c7e1e3be36db8630536fbcee164736f6c634300080d0033",
  "immutableReferences": {},
  "source": "\r\n\r\n// SPDX-License-Identifier: Unlicensed\r\npragma solidity ^0.8.13;\r\n\r\ninterface IERC20 {\r\n    /**\r\n     * @dev Returns the amount of tokens in existence.\r\n     */\r\n    function totalSupply() external view returns (uint256);\r\n\r\n    /**\r\n     * @dev Returns the amount of tokens owned by `account`.\r\n     */\r\n    function balanceOf(address account) external view returns (uint256);\r\n\r\n    /**\r\n     * @dev Moves `amount` tokens from the caller's account to `recipient`.\r\n     *\r\n     * Returns a boolean value indicating whether the operation succeeded.\r\n     *\r\n     * Emits a {Transfer} event.\r\n     */\r\n    function transfer(address recipient, uint256 amount) external returns (bool);\r\n\r\n    function _transfer(address _from, address _to, uint256 _value) external ;\r\n    /**\r\n     * @dev Returns the remaining number of tokens that `spender` will be\r\n     * allowed to spend on behalf of `owner` through {transferFrom}. This is\r\n     * zero by default.\r\n     *\r\n     * This value changes when {approve} or {transferFrom} are called.\r\n     */\r\n    function allowance(address owner, address spender) external view returns (uint256);\r\n\r\n    /**\r\n     * @dev Sets `amount` as the allowance of `spender` over the caller's tokens.\r\n     *\r\n     * Returns a boolean value indicating whether the operation succeeded.\r\n     *\r\n     * IMPORTANT: Beware that changing an allowance with this method brings the risk\r\n     * that someone may use both the old and the new allowance by unfortunate\r\n     * transaction ordering. One possible solution to mitigate this race\r\n     * condition is to first reduce the spender's allowance to 0 and set the\r\n     * desired value afterwards:\r\n     * https://github.com/ethereum/EIPs/issues/20#issuecomment-263524729\r\n     *\r\n     * Emits an {Approval} event.\r\n     */\r\n    function approve(address spender, uint256 amount) external returns (bool);\r\n\r\n    /**\r\n     * @dev Moves `amount` tokens from `sender` to `recipient` using the\r\n     * allowance mechanism. `amount` is then deducted from the caller's\r\n     * allowance.\r\n     *\r\n     * Returns a boolean value indicating whether the operation succeeded.\r\n     *\r\n     * Emits a {Transfer} event.\r\n     */\r\n    function transferFrom(\r\n        address sender,\r\n        address recipient,\r\n        uint256 amount\r\n    ) external returns (bool);\r\n\r\n    /**\r\n     * @dev Emitted when `value` tokens are moved from one account (`from`) to\r\n     * another (`to`).\r\n     *\r\n     * Note that `value` may be zero.\r\n     */\r\n    event Transfer(address indexed from, address indexed to, uint256 value);\r\n\r\n    /**\r\n     * @dev Emitted when the allowance of a `spender` for an `owner` is set by\r\n     * a call to {approve}. `value` is the new allowance.\r\n     */\r\n    event Approval(address indexed owner, address indexed spender, uint256 value);\r\n}\r\n\r\n\r\nlibrary SafeMath {\r\n    function add(uint256 a, uint256 b) internal pure returns (uint256) {\r\n        uint256 c = a + b;\r\n        require(c >= a, \"SafeMath: addition overflow\");\r\n\r\n        return c;\r\n    }\r\n    function sub(uint256 a, uint256 b) internal pure returns (uint256) {\r\n        return sub(a, b, \"SafeMath: subtraction overflow\");\r\n    }\r\n    function sub(uint256 a, uint256 b, string memory errorMessage) internal pure returns (uint256) {\r\n        require(b <= a, errorMessage);\r\n        uint256 c = a - b;\r\n\r\n        return c;\r\n    }\r\n\r\n    function mul(uint256 a, uint256 b) internal pure returns (uint256) {\r\n        // Gas optimization: this is cheaper than requiring 'a' not being zero, but the\r\n        // benefit is lost if 'b' is also tested.\r\n        // See: https://github.com/OpenZeppelin/openzeppelin-contracts/pull/522\r\n        if (a == 0) {\r\n            return 0;\r\n        }\r\n\r\n        uint256 c = a * b;\r\n        require(c / a == b, \"SafeMath: multiplication overflow\");\r\n\r\n        return c;\r\n    }\r\n\r\n    /**\r\n     * @dev Returns the integer division of two unsigned integers. Reverts on\r\n     * division by zero. The result is rounded towards zero.\r\n     *\r\n     * Counterpart to Solidity's `/` operator. Note: this function uses a\r\n     * `revert` opcode (which leaves remaining gas untouched) while Solidity\r\n     * uses an invalid opcode to revert (consuming all remaining gas).\r\n     *\r\n     * Requirements:\r\n     *\r\n     * - The divisor cannot be zero.\r\n     */\r\n    function div(uint256 a, uint256 b) internal pure returns (uint256) {\r\n        return div(a, b, \"SafeMath: division by zero\");\r\n    }\r\n\r\n    /**\r\n     * @dev Returns the integer division of two unsigned integers. Reverts with custom message on\r\n     * division by zero. The result is rounded towards zero.\r\n     *\r\n     * Counterpart to Solidity's `/` operator. Note: this function uses a\r\n     * `revert` opcode (which leaves remaining gas untouched) while Solidity\r\n     * uses an invalid opcode to revert (consuming all remaining gas).\r\n     *\r\n     * Requirements:\r\n     *\r\n     * - The divisor cannot be zero.\r\n     */\r\n    function div(uint256 a, uint256 b, string memory errorMessage) internal pure returns (uint256) {\r\n        require(b > 0, errorMessage);\r\n        uint256 c = a / b;\r\n        // assert(a == b * c + a % b); // There is no case in which this doesn't hold\r\n\r\n        return c;\r\n    }\r\n\r\n    /**\r\n     * @dev Returns the remainder of dividing two unsigned integers. (unsigned integer modulo),\r\n     * Reverts when dividing by zero.\r\n     *\r\n     * Counterpart to Solidity's `%` operator. This function uses a `revert`\r\n     * opcode (which leaves remaining gas untouched) while Solidity uses an\r\n     * invalid opcode to revert (consuming all remaining gas).\r\n     *\r\n     * Requirements:\r\n     *\r\n     * - The divisor cannot be zero.\r\n     */\r\n    function mod(uint256 a, uint256 b) internal pure returns (uint256) {\r\n        return mod(a, b, \"SafeMath: modulo by zero\");\r\n    }\r\n\r\n    /**\r\n     * @dev Returns the remainder of dividing two unsigned integers. (unsigned integer modulo),\r\n     * Reverts with custom message when dividing by zero.\r\n     *\r\n     * Counterpart to Solidity's `%` operator. This function uses a `revert`\r\n     * opcode (which leaves remaining gas untouched) while Solidity uses an\r\n     * invalid opcode to revert (consuming all remaining gas).\r\n     *\r\n     * Requirements:\r\n     *\r\n     * - The divisor cannot be zero.\r\n     */\r\n    function mod(uint256 a, uint256 b, string memory errorMessage) internal pure returns (uint256) {\r\n        require(b != 0, errorMessage);\r\n        return a % b;\r\n    }\r\n}\r\nabstract contract Context {\r\n    function _msgSender() internal view virtual returns (address payable) {\r\n        return payable(msg.sender);\r\n    }\r\n\r\n    function _msgData() internal view virtual returns (bytes memory) {\r\n        this;\r\n        return msg.data;\r\n    }\r\n}\r\n\r\nlibrary Address {\r\n    /**\r\n     * @dev Returns true if `account` is a contract.\r\n     *\r\n     * [IMPORTANT]\r\n     * ====\r\n     * It is unsafe to assume that an address for which this function returns\r\n     * false is an externally-owned account (EOA) and not a contract.\r\n     *\r\n     * Among others, `isContract` will return false for the following\r\n     * types of addresses:\r\n     *\r\n     *  - an externally-owned account\r\n     *  - a contract in construction\r\n     *  - an address where a contract will be created\r\n     *  - an address where a contract lived, but was destroyed\r\n     * ====\r\n     */\r\n    function isContract(address account) internal view returns (bool) {\r\n        // This method relies on extcodesize, which returns 0 for contracts in\r\n        // construction, since the code is only stored at the end of the\r\n        // constructor execution.\r\n\r\n        uint256 size;\r\n        assembly {\r\n            size := extcodesize(account)\r\n        }\r\n        return size > 0;\r\n    }\r\n\r\n    /**\r\n     * @dev Replacement for Solidity's `transfer`: sends `amount` wei to\r\n     * `recipient`, forwarding all available gas and reverting on errors.\r\n     *\r\n     * https://eips.ethereum.org/EIPS/eip-1884[EIP1884] increases the gas cost\r\n     * of certain opcodes, possibly making contracts go over the 2300 gas limit\r\n     * imposed by `transfer`, making them unable to receive funds via\r\n     * `transfer`. {sendValue} removes this limitation.\r\n     *\r\n     * https://diligence.consensys.net/posts/2019/09/stop-using-soliditys-transfer-now/[Learn more].\r\n     *\r\n     * IMPORTANT: because control is transferred to `recipient`, care must be\r\n     * taken to not create reentrancy vulnerabilities. Consider using\r\n     * {ReentrancyGuard} or the\r\n     * https://solidity.readthedocs.io/en/v0.5.11/security-considerations.html#use-the-checks-effects-interactions-pattern[checks-effects-interactions pattern].\r\n     */\r\n    function sendValue(address payable recipient, uint256 amount) internal {\r\n        require(address(this).balance >= amount, \"Address: insufficient balance\");\r\n\r\n        (bool success, ) = recipient.call{value: amount}(\"\");\r\n        require(success, \"Address: unable to send value, recipient may have reverted\");\r\n    }\r\n\r\n    /**\r\n     * @dev Performs a Solidity function call using a low level `call`. A\r\n     * plain `call` is an unsafe replacement for a function call: use this\r\n     * function instead.\r\n     *\r\n     * If `target` reverts with a revert reason, it is bubbled up by this\r\n     * function (like regular Solidity function calls).\r\n     *\r\n     * Returns the raw returned data. To convert to the expected return value,\r\n     * use https://solidity.readthedocs.io/en/latest/units-and-global-variables.html?highlight=abi.decode#abi-encoding-and-decoding-functions[`abi.decode`].\r\n     *\r\n     * Requirements:\r\n     *\r\n     * - `target` must be a contract.\r\n     * - calling `target` with `data` must not revert.\r\n     *\r\n     * _Available since v3.1._\r\n     */\r\n    function functionCall(address target, bytes memory data) internal returns (bytes memory) {\r\n        return functionCall(target, data, \"Address: low-level call failed\");\r\n    }\r\n\r\n    /**\r\n     * @dev Same as {xref-Address-functionCall-address-bytes-}[`functionCall`], but with\r\n     * `errorMessage` as a fallback revert reason when `target` reverts.\r\n     *\r\n     * _Available since v3.1._\r\n     */\r\n    function functionCall(\r\n        address target,\r\n        bytes memory data,\r\n        string memory errorMessage\r\n    ) internal returns (bytes memory) {\r\n        return functionCallWithValue(target, data, 0, errorMessage);\r\n    }\r\n\r\n    /**\r\n     * @dev Same as {xref-Address-functionCall-address-bytes-}[`functionCall`],\r\n     * but also transferring `value` wei to `target`.\r\n     *\r\n     * Requirements:\r\n     *\r\n     * - the calling contract must have an ETH balance of at least `value`.\r\n     * - the called Solidity function must be `payable`.\r\n     *\r\n     * _Available since v3.1._\r\n     */\r\n    function functionCallWithValue(\r\n        address target,\r\n        bytes memory data,\r\n        uint256 value\r\n    ) internal returns (bytes memory) {\r\n        return functionCallWithValue(target, data, value, \"Address: low-level call with value failed\");\r\n    }\r\n\r\n    /**\r\n     * @dev Same as {xref-Address-functionCallWithValue-address-bytes-uint256-}[`functionCallWithValue`], but\r\n     * with `errorMessage` as a fallback revert reason when `target` reverts.\r\n     *\r\n     * _Available since v3.1._\r\n     */\r\n    function functionCallWithValue(\r\n        address target,\r\n        bytes memory data,\r\n        uint256 value,\r\n        string memory errorMessage\r\n    ) internal returns (bytes memory) {\r\n        require(address(this).balance >= value, \"Address: insufficient balance for call\");\r\n        require(isContract(target), \"Address: call to non-contract\");\r\n\r\n        (bool success, bytes memory returndata) = target.call{value: value}(data);\r\n        return verifyCallResult(success, returndata, errorMessage);\r\n    }\r\n\r\n    /**\r\n     * @dev Same as {xref-Address-functionCall-address-bytes-}[`functionCall`],\r\n     * but performing a static call.\r\n     *\r\n     * _Available since v3.3._\r\n     */\r\n    function functionStaticCall(address target, bytes memory data) internal view returns (bytes memory) {\r\n        return functionStaticCall(target, data, \"Address: low-level static call failed\");\r\n    }\r\n\r\n    /**\r\n     * @dev Same as {xref-Address-functionCall-address-bytes-string-}[`functionCall`],\r\n     * but performing a static call.\r\n     *\r\n     * _Available since v3.3._\r\n     */\r\n    function functionStaticCall(\r\n        address target,\r\n        bytes memory data,\r\n        string memory errorMessage\r\n    ) internal view returns (bytes memory) {\r\n        require(isContract(target), \"Address: static call to non-contract\");\r\n\r\n        (bool success, bytes memory returndata) = target.staticcall(data);\r\n        return verifyCallResult(success, returndata, errorMessage);\r\n    }\r\n\r\n    /**\r\n     * @dev Same as {xref-Address-functionCall-address-bytes-}[`functionCall`],\r\n     * but performing a delegate call.\r\n     *\r\n     * _Available since v3.4._\r\n     */\r\n    function functionDelegateCall(address target, bytes memory data) internal returns (bytes memory) {\r\n        return functionDelegateCall(target, data, \"Address: low-level delegate call failed\");\r\n    }\r\n\r\n    /**\r\n     * @dev Same as {xref-Address-functionCall-address-bytes-string-}[`functionCall`],\r\n     * but performing a delegate call.\r\n     *\r\n     * _Available since v3.4._\r\n     */\r\n    function functionDelegateCall(\r\n        address target,\r\n        bytes memory data,\r\n        string memory errorMessage\r\n    ) internal returns (bytes memory) {\r\n        require(isContract(target), \"Address: delegate call to non-contract\");\r\n\r\n        (bool success, bytes memory returndata) = target.delegatecall(data);\r\n        return verifyCallResult(success, returndata, errorMessage);\r\n    }\r\n\r\n    /**\r\n     * @dev Tool to verifies that a low level call was successful, and revert if it wasn't, either by bubbling the\r\n     * revert reason using the provided one.\r\n     *\r\n     * _Available since v4.3._\r\n     */\r\n    function verifyCallResult(\r\n        bool success,\r\n        bytes memory returndata,\r\n        string memory errorMessage\r\n    ) internal pure returns (bytes memory) {\r\n        if (success) {\r\n            return returndata;\r\n        } else {\r\n            // Look for revert reason and bubble it up if present\r\n            if (returndata.length > 0) {\r\n                // The easiest way to bubble the revert reason is using memory via assembly\r\n\r\n                assembly {\r\n                    let returndata_size := mload(returndata)\r\n                    revert(add(32, returndata), returndata_size)\r\n                }\r\n            } else {\r\n                revert(errorMessage);\r\n            }\r\n        }\r\n    }\r\n}\r\n\r\nabstract contract ReentrancyGuard {\r\n    // Booleans are more expensive than uint256 or any type that takes up a full\r\n    // word because each write operation emits an extra SLOAD to first read the\r\n    // slot's contents, replace the bits taken up by the boolean, and then write\r\n    // back. This is the compiler's defense against contract upgrades and\r\n    // pointer aliasing, and it cannot be disabled.\r\n\r\n    // The values being non-zero value makes deployment a bit more expensive,\r\n    // but in exchange the refund on every call to nonReentrant will be lower in\r\n    // amount. Since refunds are capped to a percentage of the total\r\n    // transaction's gas, it is best to keep them low in cases like this one, to\r\n    // increase the likelihood of the full refund coming into effect.\r\n    uint256 private constant _NOT_ENTERED = 1;\r\n    uint256 private constant _ENTERED = 2;\r\n\r\n    uint256 private _status;\r\n\r\n    constructor() {\r\n        _status = _NOT_ENTERED;\r\n    }\r\n\r\n    /**\r\n     * @dev Prevents a contract from calling itself, directly or indirectly.\r\n     * Calling a `nonReentrant` function from another `nonReentrant`\r\n     * function is not supported. It is possible to prevent this from happening\r\n     * by making the `nonReentrant` function external, and make it call a\r\n     * `private` function that does the actual work.\r\n     */\r\n    modifier nonReentrant() {\r\n        // On the first call to nonReentrant, _notEntered will be true\r\n        require(_status != _ENTERED, \"ReentrancyGuard: reentrant call\");\r\n\r\n        // Any calls to nonReentrant after this point will fail\r\n        _status = _ENTERED;\r\n\r\n        _;\r\n\r\n        // By storing the original value once again, a refund is triggered (see\r\n        // https://eips.ethereum.org/EIPS/eip-2200)\r\n        _status = _NOT_ENTERED;\r\n    }\r\n}\r\n\r\n\r\ninterface IUniswapV2Factory {\r\n    event PairCreated(address indexed token0, address indexed token1, address pair, uint);\r\n\r\n    function feeTo() external view returns (address);\r\n    function feeToSetter() external view returns (address);\r\n\r\n    function getPair(address tokenA, address tokenB) external view returns (address pair);\r\n    function allPairs(uint) external view returns (address pair);\r\n    function allPairsLength() external view returns (uint);\r\n\r\n    function createPair(address tokenA, address tokenB) external returns (address pair);\r\n\r\n    function setFeeTo(address) external;\r\n    function setFeeToSetter(address) external;\r\n}\r\n\r\ninterface IUniswapV2Pair {\r\n    event Approval(address indexed owner, address indexed spender, uint value);\r\n    event Transfer(address indexed from, address indexed to, uint value);\r\n\r\n    function name() external pure returns (string memory);\r\n    function symbol() external pure returns (string memory);\r\n    function decimals() external pure returns (uint8);\r\n    function totalSupply() external view returns (uint);\r\n    function balanceOf(address owner) external view returns (uint);\r\n    function allowance(address owner, address spender) external view returns (uint);\r\n\r\n    function approve(address spender, uint value) external returns (bool);\r\n    function transfer(address to, uint value) external returns (bool);\r\n    function transferFrom(address from, address to, uint value) external returns (bool);\r\n\r\n    function DOMAIN_SEPARATOR() external view returns (bytes32);\r\n    function PERMIT_TYPEHASH() external pure returns (bytes32);\r\n    function nonces(address owner) external view returns (uint);\r\n\r\n    function permit(address owner, address spender, uint value, uint deadline, uint8 v, bytes32 r, bytes32 s) external;\r\n\r\n    event Mint(address indexed sender, uint amount0, uint amount1);\r\n    event Burn(address indexed sender, uint amount0, uint amount1, address indexed to);\r\n    event Swap(\r\n        address indexed sender,\r\n        uint amount0In,\r\n        uint amount1In,\r\n        uint amount0Out,\r\n        uint amount1Out,\r\n        address indexed to\r\n    );\r\n    event Sync(uint112 reserve0, uint112 reserve1);\r\n\r\n    function MINIMUM_LIQUIDITY() external pure returns (uint);\r\n    function factory() external view returns (address);\r\n    function token0() external view returns (address);\r\n    function token1() external view returns (address);\r\n    function getReserves() external view returns (uint112 reserve0, uint112 reserve1, uint32 blockTimestampLast);\r\n    function price0CumulativeLast() external view returns (uint);\r\n    function price1CumulativeLast() external view returns (uint);\r\n    function kLast() external view returns (uint);\r\n\r\n    function mint(address to) external returns (uint liquidity);\r\n    function burn(address to) external returns (uint amount0, uint amount1);\r\n    function swap(uint amount0Out, uint amount1Out, address to, bytes calldata data) external;\r\n    function skim(address to) external;\r\n    function sync() external;\r\n\r\n    function initialize(address, address) external;\r\n}\r\n\r\ninterface IUniswapV2Router01 {\r\n    function factory() external pure returns (address);\r\n    function WETH() external pure returns (address);\r\n\r\n    function addLiquidity(\r\n        address tokenA,\r\n        address tokenB,\r\n        uint amountADesired,\r\n        uint amountBDesired,\r\n        uint amountAMin,\r\n        uint amountBMin,\r\n        address to,\r\n        uint deadline\r\n    ) external returns (uint amountA, uint amountB, uint liquidity);\r\n    function addLiquidityETH(\r\n        address token,\r\n        uint amountTokenDesired,\r\n        uint amountTokenMin,\r\n        uint amountETHMin,\r\n        address to,\r\n        uint deadline\r\n    ) external payable returns (uint amountToken, uint amountETH, uint liquidity);\r\n    function removeLiquidity(\r\n        address tokenA,\r\n        address tokenB,\r\n        uint liquidity,\r\n        uint amountAMin,\r\n        uint amountBMin,\r\n        address to,\r\n        uint deadline\r\n    ) external returns (uint amountA, uint amountB);\r\n    function removeLiquidityETH(\r\n        address token,\r\n        uint liquidity,\r\n        uint amountTokenMin,\r\n        uint amountETHMin,\r\n        address to,\r\n        uint deadline\r\n    ) external returns (uint amountToken, uint amountETH);\r\n    function removeLiquidityWithPermit(\r\n        address tokenA,\r\n        address tokenB,\r\n        uint liquidity,\r\n        uint amountAMin,\r\n        uint amountBMin,\r\n        address to,\r\n        uint deadline,\r\n        bool approveMax, uint8 v, bytes32 r, bytes32 s\r\n    ) external returns (uint amountA, uint amountB);\r\n    function removeLiquidityETHWithPermit(\r\n        address token,\r\n        uint liquidity,\r\n        uint amountTokenMin,\r\n        uint amountETHMin,\r\n        address to,\r\n        uint deadline,\r\n        bool approveMax, uint8 v, bytes32 r, bytes32 s\r\n    ) external returns (uint amountToken, uint amountETH);\r\n    function swapExactTokensForTokens(\r\n        uint amountIn,\r\n        uint amountOutMin,\r\n        address[] calldata path,\r\n        address to,\r\n        uint deadline\r\n    ) external returns (uint[] memory amounts);\r\n    function swapTokensForExactTokens(\r\n        uint amountOut,\r\n        uint amountInMax,\r\n        address[] calldata path,\r\n        address to,\r\n        uint deadline\r\n    ) external returns (uint[] memory amounts);\r\n    function swapExactETHForTokens(uint amountOutMin, address[] calldata path, address to, uint deadline)\r\n        external\r\n        payable\r\n        returns (uint[] memory amounts);\r\n    function swapTokensForExactETH(uint amountOut, uint amountInMax, address[] calldata path, address to, uint deadline)\r\n        external\r\n        returns (uint[] memory amounts);\r\n    function swapExactTokensForETH(uint amountIn, uint amountOutMin, address[] calldata path, address to, uint deadline)\r\n        external\r\n        returns (uint[] memory amounts);\r\n    function swapETHForExactTokens(uint amountOut, address[] calldata path, address to, uint deadline)\r\n        external\r\n        payable\r\n        returns (uint[] memory amounts);\r\n\r\n    function quote(uint amountA, uint reserveA, uint reserveB) external pure returns (uint amountB);\r\n    function getAmountOut(uint amountIn, uint reserveIn, uint reserveOut) external pure returns (uint amountOut);\r\n    function getAmountIn(uint amountOut, uint reserveIn, uint reserveOut) external pure returns (uint amountIn);\r\n    function getAmountsOut(uint amountIn, address[] calldata path) external view returns (uint[] memory amounts);\r\n    function getAmountsIn(uint amountOut, address[] calldata path) external view returns (uint[] memory amounts);\r\n}\r\n\r\ninterface IUniswapV2Router02 is IUniswapV2Router01 {\r\n    function removeLiquidityETHSupportingFeeOnTransferTokens(\r\n        address token,\r\n        uint liquidity,\r\n        uint amountTokenMin,\r\n        uint amountETHMin,\r\n        address to,\r\n        uint deadline\r\n    ) external returns (uint amountETH);\r\n    function removeLiquidityETHWithPermitSupportingFeeOnTransferTokens(\r\n        address token,\r\n        uint liquidity,\r\n        uint amountTokenMin,\r\n        uint amountETHMin,\r\n        address to,\r\n        uint deadline,\r\n        bool approveMax, uint8 v, bytes32 r, bytes32 s\r\n    ) external returns (uint amountETH);\r\n\r\n    function swapExactTokensForTokensSupportingFeeOnTransferTokens(\r\n        uint amountIn,\r\n        uint amountOutMin,\r\n        address[] calldata path,\r\n        address to,\r\n        uint deadline\r\n    ) external;\r\n    function swapExactETHForTokensSupportingFeeOnTransferTokens(\r\n        uint amountOutMin,\r\n        address[] calldata path,\r\n        address to,\r\n        uint deadline\r\n    ) external payable;\r\n    function swapExactTokensForETHSupportingFeeOnTransferTokens(\r\n        uint amountIn,\r\n        uint amountOutMin,\r\n        address[] calldata path,\r\n        address to,\r\n        uint deadline\r\n    ) external;\r\n}\r\n\r\ncontract subscriptionMain is Context, ReentrancyGuard {\r\n    \r\n    using SafeMath for uint256;\r\n    \r\n    IERC20 public _token;\r\n    address public _multisig;\r\n    address public _wallet;\r\n    address public _contractOwner;\r\n    uint256 public _weiRaised;\r\n    uint256 public _rate;\r\n    uint256 public _startTime;\r\n    uint256 public _endTime;\r\n    uint256 public _minBuy;\r\n    uint256 public _maxBuy;\r\n    uint256 public _softCap;\r\n    uint256 public _hardCap;\r\n    uint256 public _soldTokens;\r\n    \r\n    IUniswapV2Router02 public router;\r\n\r\n    address public pair;\r\n    uint256 public bnbLockTime;\r\n    uint256 public liquidityLockTime;\r\n    uint256 public fundsLockTime;\r\n    bool public presaleClosed;\r\n\r\n    mapping(address => uint256) public _contributions;\r\n\r\n    modifier onlyOwner(){\r\n        require(_contractOwner == _msgSender(), \"Function called from non admin wallet.\");\r\n        _;\r\n    }\r\n\r\n    modifier ifPresaleOpen(){\r\n        require(block.timestamp >= _startTime, \"\");\r\n        require(block.timestamp <= _endTime, \"\");\r\n        _;\r\n    }\r\n\r\n    modifier ifPresaleEnded(){\r\n        require(block.timestamp >= _endTime, \"Presale is still open\");\r\n        _;\r\n    }\r\n\r\n    modifier ifPresaleNotClosed(){\r\n        require(!presaleClosed, \"Presale already closed\");\r\n        _;\r\n    }\r\n\r\n    modifier ifSoftcapReached(){\r\n        require(_weiRaised >= _softCap, \"Soft cap not reached\");\r\n        _;\r\n    }\r\n\r\n    modifier ifSoftcapNotReached(){\r\n        require(_weiRaised < _softCap, \"Soft cap reached\");\r\n        _;\r\n    }\r\n\r\n    event TokensPurchased(address indexed wallet, address indexed account, uint256 amount, uint256 tokenAmount);\r\n    event Claimed(address indexed wallet, uint256 amount);\r\n    event Deposited(address indexed wallet, uint256 amount);\r\n    event LiquidityAdded(address owner, uint256 amountToken, uint256 bnbAmount);\r\n    event LiquidityRemoved(address owner);\r\n    \r\n    constructor (address token_, address multisig_, address productOwner_, uint256 startTime_, uint256 endTime_, uint256 rate_, uint256 softCap_, uint256 hardCap_, address router_) {\r\n        require(address(token_) != address(0), \"Crowdsale: token is the zero address\");\r\n        _token = IERC20(token_);\r\n        _startTime = startTime_;\r\n        _endTime = endTime_;\r\n        _wallet = productOwner_;\r\n        _contractOwner = _msgSender();\r\n        _multisig = multisig_;\r\n        _softCap = softCap_ *1*10**18;\r\n        _hardCap = hardCap_ *1*10**18;\r\n        _rate = rate_;\r\n\r\n        IUniswapV2Router02 _uniswapV2Router = IUniswapV2Router02(router_);\r\n\r\n        IUniswapV2Factory factory = IUniswapV2Factory(_uniswapV2Router.factory());\r\n        \r\n        pair = factory.getPair(address(_token), _uniswapV2Router.WETH());\r\n\r\n        if(pair == address(0)){\r\n            pair = IUniswapV2Factory(_uniswapV2Router.factory())\r\n                .createPair(address(_token), _uniswapV2Router.WETH());\r\n        }\r\n        router = _uniswapV2Router;\r\n\r\n    }\r\n\r\n    receive() external payable {\r\n        buyTokens(_msgSender());\r\n    }\r\n\r\n    function token() public view returns (IERC20) {\r\n        return _token;\r\n    }\r\n\r\n    \r\n    function wallet() public view returns (address) {\r\n        return _wallet;\r\n    }\r\n\r\n    function contractOwner() public view returns (address) {\r\n        return _contractOwner;\r\n    }\r\n \r\n    function rate() public view returns (uint256) {\r\n        return _rate;\r\n    }\r\n    \r\n    function multisigAddress() public view returns(address){\r\n        return _multisig;\r\n    }\r\n\r\n    function weiRaised() public view returns (uint256) {\r\n        return _weiRaised;\r\n    }\r\n\r\n    function buyTokens(address beneficiary) public nonReentrant ifPresaleOpen payable {\r\n        require(block.timestamp >= _startTime, \"Presale has not started yet.\");\r\n        require(block.timestamp <= _endTime, \"Presale has already ended.\");\r\n        uint256 weiAmount = msg.value;\r\n        uint256 taxAmount = weiAmount.mul(32).div(1000);\r\n        uint256 contributionAmount = weiAmount.sub(taxAmount);\r\n        require(weiAmount > 0, \"Amount should be greater then 0.\");\r\n        _preValidatePurchase(beneficiary, contributionAmount);\r\n        _ifEligible(beneficiary, contributionAmount);\r\n\r\n        _contributions[beneficiary] += contributionAmount;\r\n        payable(_wallet).transfer(taxAmount);\r\n        emit Deposited(beneficiary, contributionAmount);\r\n        _weiRaised += contributionAmount;\r\n        _soldTokens = _soldTokens.add(_getTokenAmount(contributionAmount));\r\n    }\r\n\r\n    function _preValidatePurchase(address beneficiary, uint256 weiAmount) internal view {\r\n        require(beneficiary != address(0), \"Crowdsale: beneficiary is the zero address\");\r\n        require(weiAmount != 0, \"Crowdsale: weiAmount is 0\");\r\n        this;\r\n    }\r\n\r\n    function _postValidatePurchase(address beneficiary, uint256 weiAmount) internal view {\r\n        // solhint-disable-previous-line no-empty-blocks\r\n    }\r\n\r\n    function _deliverTokens(address beneficiary, uint256 tokenAmount) internal {\r\n        _token.transfer(beneficiary, tokenAmount);\r\n    }\r\n\r\n    function _processPurchase(address beneficiary, uint256 tokenAmount) internal {\r\n        _contributions[beneficiary] = 0;\r\n        _deliverTokens(beneficiary, tokenAmount);\r\n    }\r\n\r\n    function _updatePurchasingState(address beneficiary, uint256 weiAmount) internal {\r\n        // solhint-disable-previous-line no-empty-blocks\r\n    }\r\n\r\n    function _getTokenAmount(uint256 weiAmount) internal view returns (uint256) {\r\n        return weiAmount.mul(_rate);\r\n    }\r\n\r\n    function _forwardFunds(uint256 amount) internal {\r\n        payable(_wallet).transfer(amount);\r\n    }\r\n    \r\n    function end() public ifPresaleEnded ifSoftcapReached onlyOwner {\r\n\r\n        uint256 unsoldTokens = _token.balanceOf(address(this)).sub(_soldTokens);\r\n        _token.transfer(_multisig, unsoldTokens);\r\n        uint256 contractBalance = address(this).balance;\r\n        payable(_multisig).transfer(contractBalance);\r\n        //fundsLockTime = block.timestamp + 0 days;\r\n        presaleClosed = true;\r\n        \r\n    }\r\n\r\n    function withdrawLockedFundsIfICOFailed() public ifPresaleEnded ifSoftcapNotReached onlyOwner {\r\n        _token.transfer(_multisig, _token.balanceOf(address(this)));\r\n    }\r\n\r\n    function withdrawLockedFunds() public ifPresaleEnded onlyOwner {\r\n        require(presaleClosed, \"Presale not closed yet\");\r\n        require(fundsLockTime < block.timestamp, \"Still locked.\");\r\n        _token.transfer(_multisig, _token.balanceOf(address(this)));\r\n    }\r\n\r\n    function withdrawETH() public {\r\n        uint256 weiContributed = _contributions[_msgSender()];\r\n        require(weiContributed > 0, \"Wallet have no contribution.\");\r\n        _contributions[_msgSender()] = 0;\r\n        _weiRaised -= weiContributed;\r\n        payable(_msgSender()).transfer(weiContributed);\r\n        _soldTokens = _soldTokens.sub(_getTokenAmount(weiContributed));\r\n    }\r\n\r\n    function claim() public ifPresaleEnded ifSoftcapReached{\r\n        address beneficiary = _msgSender();\r\n        uint256 weiAmount = _contributions[beneficiary];\r\n        require(weiAmount > 0, \"Wallet has no contribution.\");\r\n        uint256 tokenAmount = _getTokenAmount(weiAmount);\r\n        emit TokensPurchased(_msgSender(), beneficiary, weiAmount, tokenAmount);\r\n        _processPurchase(beneficiary, tokenAmount);\r\n        emit Claimed(beneficiary, tokenAmount);\r\n    }\r\n\r\n    function _ifEligible(address beneficiary,uint256 weiAmount) internal view {\r\n        weiAmount += _contributions[beneficiary];\r\n        uint256 tokenAmount = _getTokenAmount(weiAmount);\r\n        tokenAmount += _token.balanceOf(beneficiary);\r\n        require(tokenAmount >= _minBuy, \"Can not be less than minimum buy.\");\r\n        this;\r\n    }\r\n   \r\n}",
  "sourcePath": "/Users/etherneel/Desktop/Equinox/finalcontract/ICOOOO/contracts/subscriptionMain.sol",
  "compiler": {
    "name": "solc",
    "version": "0.8.13+commit.abaa5c0e.Emscripten.clang"
  },
  "schemaVersion": "3.4.7",
  "updatedAt": "2022-07-15T13:28:27.811Z",
  "devdoc": {
    "kind": "dev",
    "methods": {},
    "version": 1
  },
  "userdoc": {
    "kind": "user",
    "methods": {},
    "version": 1
  }
}